2023/02/15 10:01:41.185843 8=FIX.4.4|9=67|35=A|34=1|49=EGIDS|56=CASE|52=20230215-10:01:41|98=0|108=120|141=Y|10=016|
2023/02/15 10:01:41.185942 8=FIX.4.4|9=71|35=A|34=1|49=CASE|52=20230215-10:01:41.185|56=EGIDS|98=0|108=120|141=Y|10=215|
2023/02/15 10:01:43.857331 8=FIX.4.4|9=67|35=A|34=1|49=EGIDS|56=CASE|52=20230215-10:01:43|98=0|108=120|141=Y|10=018|
2023/02/15 10:01:43.857393 8=FIX.4.4|9=71|35=A|34=1|49=CASE|52=20230215-10:01:43.857|56=EGIDS|98=0|108=120|141=Y|10=223|
2023/02/15 10:01:43.857601 8=FIX.4.4|9=216|35=D|34=2|347=UTF-8|52=20230215-10:01:43|49=EGIDS|50=01001a|56=CASE|44=1|11=72|1=10100669|21=1|386=1|336=NOPL|55=EGMFC001MM19|54=2|60=20230215-10:01:43|38=10000|40=2|59=0|453=1|448=4501|447=D|452=28|354=6|355=Public|10=237|
2023/02/15 10:03:13.080969 8=FIX.4.4|9=67|35=A|34=1|49=EGIDS|56=CASE|52=20230215-10:03:13|98=0|108=120|141=Y|10=017|
2023/02/15 10:03:13.081066 8=FIX.4.4|9=71|35=A|34=1|49=CASE|52=20230215-10:03:13.081|56=EGIDS|98=0|108=120|141=Y|10=211|
2023/02/15 10:03:13.081547 8=FIX.4.4|9=216|35=D|34=2|347=UTF-8|52=20230215-10:03:13|49=EGIDS|50=01001a|56=CASE|44=1|11=76|1=10100669|21=1|386=1|336=NOPL|55=EGMFC001MM19|54=2|60=20230215-10:03:13|38=10000|40=2|59=0|453=1|448=4501|447=D|452=28|354=6|355=Public|10=239|
2023/02/15 10:03:13.083343 8=FIX.4.4|9=171|35=8|34=2|49=CASE|52=20230215-10:03:13.083|56=EGIDS|1=10100669|6=1.00|11=76|14=10000.00|17=1|31=1.00|32=10000.00|37=1|38=10000.00|39=2|54=2|55=EGMFC001MM19|150=2|151=0.00|10=056|
2023/02/15 10:03:13.976483 8=FIX.4.4|9=216|35=D|34=3|347=UTF-8|52=20230215-10:03:13|49=EGIDS|50=01001a|56=CASE|44=1|11=77|1=10100669|21=1|386=1|336=NOPL|55=EGMFC001MM19|54=2|60=20230215-10:03:13|38=10000|40=2|59=0|453=1|448=4501|447=D|452=28|354=6|355=Public|10=241|
2023/02/15 10:03:13.977941 8=FIX.4.4|9=171|35=8|34=3|49=CASE|52=20230215-10:03:13.977|56=EGIDS|1=10100669|6=1.00|11=77|14=10000.00|17=2|31=1.00|32=10000.00|37=2|38=10000.00|39=2|54=2|55=EGMFC001MM19|150=2|151=0.00|10=072|
2023/02/15 10:03:14.608555 8=FIX.4.4|9=216|35=D|34=4|347=UTF-8|52=20230215-10:03:14|49=EGIDS|50=01001a|56=CASE|44=1|11=78|1=10100669|21=1|386=1|336=NOPL|55=EGMFC001MM19|54=2|60=20230215-10:03:14|38=10000|40=2|59=0|453=1|448=4501|447=D|452=28|354=6|355=Public|10=245|
2023/02/15 10:03:14.609887 8=FIX.4.4|9=171|35=8|34=4|49=CASE|52=20230215-10:03:14.609|56=EGIDS|1=10100669|6=1.00|11=78|14=10000.00|17=3|31=1.00|32=10000.00|37=3|38=10000.00|39=2|54=2|55=EGMFC001MM19|150=2|151=0.00|10=069|
2023/02/15 10:03:15.128595 8=FIX.4.4|9=216|35=D|34=5|347=UTF-8|52=20230215-10:03:15|49=EGIDS|50=01001a|56=CASE|44=1|11=79|1=10100669|21=1|386=1|336=NOPL|55=EGMFC001MM19|54=2|60=20230215-10:03:15|38=10000|40=2|59=0|453=1|448=4501|447=D|452=28|354=6|355=Public|10=249|
2023/02/15 10:03:15.130069 8=FIX.4.4|9=171|35=8|34=5|49=CASE|52=20230215-10:03:15.130|56=EGIDS|1=10100669|6=1.00|11=79|14=10000.00|17=4|31=1.00|32=10000.00|37=4|38=10000.00|39=2|54=2|55=EGMFC001MM19|150=2|151=0.00|10=063|
2023/02/15 10:03:15.560642 8=FIX.4.4|9=216|35=D|34=6|347=UTF-8|52=20230215-10:03:15|49=EGIDS|50=01001a|56=CASE|44=1|11=80|1=10100669|21=1|386=1|336=NOPL|55=EGMFC001MM19|54=2|60=20230215-10:03:15|38=10000|40=2|59=0|453=1|448=4501|447=D|452=28|354=6|355=Public|10=242|
2023/02/15 10:03:15.562092 8=FIX.4.4|9=171|35=8|34=6|49=CASE|52=20230215-10:03:15.562|56=EGIDS|1=10100669|6=1.00|11=80|14=10000.00|17=5|31=1.00|32=10000.00|37=5|38=10000.00|39=2|54=2|55=EGMFC001MM19|150=2|151=0.00|10=067|
2023/02/15 10:03:20.384473 8=FIX.4.4|9=52|35=5|34=7|49=CASE|52=20230215-10:03:20.384|56=EGIDS|10=090|
2023/02/15 10:04:31.210149 8=FIX.4.4|9=67|35=A|34=1|49=EGIDS|56=CASE|52=20230215-10:04:31|98=0|108=120|141=Y|10=018|
2023/02/15 10:04:31.210236 8=FIX.4.4|9=71|35=A|34=1|49=CASE|52=20230215-10:04:31.210|56=EGIDS|98=0|108=120|141=Y|10=206|
2023/02/15 10:04:31.210246 8=FIX.4.4|9=216|35=D|34=2|347=UTF-8|52=20230215-10:04:31|49=EGIDS|50=01001a|56=CASE|44=1|11=81|1=10100669|21=1|386=1|336=NOPL|55=EGMFC001MM19|54=2|60=20230215-10:04:31|38=10000|40=2|59=0|453=1|448=4501|447=D|452=28|354=6|355=Public|10=237|
2023/02/15 10:04:31.212775 8=FIX.4.4|9=171|35=8|34=2|49=CASE|52=20230215-10:04:31.212|56=EGIDS|1=10100669|6=1.00|11=81|14=10000.00|17=1|31=1.00|32=10000.00|37=1|38=10000.00|39=2|54=2|55=EGMFC001MM19|150=2|151=0.00|10=047|
2023/02/15 10:04:35.152371 8=FIX.4.4|9=52|35=5|34=3|49=CASE|52=20230215-10:04:35.152|56=EGIDS|10=086|
2023/02/15 10:08:15.162025 8=FIX.4.4|9=67|35=A|34=1|49=EGIDS|56=CASE|52=20230215-10:08:15|98=0|108=120|141=Y|10=024|
2023/02/15 10:08:15.162162 8=FIX.4.4|9=71|35=A|34=1|49=CASE|52=20230215-10:08:15.162|56=EGIDS|98=0|108=120|141=Y|10=218|
2023/02/15 10:08:15.331383 8=FIX.4.4|9=67|35=A|34=1|49=EGIDS|56=CASE|52=20230215-10:08:15|98=0|108=120|141=Y|10=024|
2023/02/15 10:08:15.331512 8=FIX.4.4|9=71|35=A|34=1|49=CASE|52=20230215-10:08:15.331|56=EGIDS|98=0|108=120|141=Y|10=216|
2023/02/15 10:08:20.033473 8=FIX.4.4|9=67|35=A|34=1|49=EGIDS|56=CASE|52=20230215-10:08:20|98=0|108=120|141=Y|10=020|
2023/02/15 10:08:20.033588 8=FIX.4.4|9=71|35=A|34=1|49=CASE|52=20230215-10:08:20.033|56=EGIDS|98=0|108=120|141=Y|10=211|
2023/02/15 10:08:22.024966 8=FIX.4.4|9=216|35=D|34=2|347=UTF-8|52=20230215-10:08:22|49=EGIDS|50=01001a|56=CASE|44=1|11=85|1=10100669|21=1|386=1|336=NOPL|55=EGMFC001MM19|54=2|60=20230215-10:08:22|38=10000|40=2|59=0|453=1|448=4501|447=D|452=28|354=6|355=Public|10=249|
2023/02/15 10:09:29.570298 8=FIX.4.4|9=67|35=A|34=1|49=EGIDS|56=CASE|52=20230215-10:09:29|98=0|108=120|141=Y|10=030|
2023/02/15 10:09:29.570421 8=FIX.4.4|9=71|35=A|34=1|49=CASE|52=20230215-10:09:29.570|56=EGIDS|98=0|108=120|141=Y|10=227|
2023/02/15 10:09:29.570524 8=FIX.4.4|9=216|35=D|34=2|347=UTF-8|52=20230215-10:09:29|49=EGIDS|50=01001a|56=CASE|44=1|11=87|1=10100669|21=1|386=1|336=NOPL|55=EGMFC001MM19|54=2|60=20230215-10:09:29|38=10000|40=2|59=0|453=1|448=4501|447=D|452=28|354=6|355=Public|10=011|
2023/02/15 10:09:36.714531 8=FIX.4.4|9=171|35=8|34=2|49=CASE|52=20230215-10:09:36.714|56=EGIDS|1=10100669|6=1.00|11=87|14=10000.00|17=1|31=1.00|32=10000.00|37=1|38=10000.00|39=2|54=2|55=EGMFC001MM19|150=2|151=0.00|10=070|
2023/02/15 10:09:36.714567 8=FIX.4.4|9=216|35=D|34=3|347=UTF-8|52=20230215-10:09:32|49=EGIDS|50=01001a|56=CASE|44=1|11=88|1=10100669|21=1|386=1|336=NOPL|55=EGMFC001MM19|54=2|60=20230215-10:09:32|38=10000|40=2|59=0|453=1|448=4501|447=D|452=28|354=6|355=Public|10=001|
2023/02/15 10:09:57.950564 8=FIX.4.4|9=216|35=D|34=4|347=UTF-8|52=20230215-10:09:33|49=EGIDS|50=01001a|56=CASE|44=1|11=89|1=10100669|21=1|386=1|336=NOPL|55=EGMFC001MM19|54=2|60=20230215-10:09:33|38=10000|40=2|59=0|453=1|448=4501|447=D|452=28|354=6|355=Public|10=005|
2023/02/15 10:10:48.923026 8=FIX.4.4|9=216|35=D|34=5|347=UTF-8|52=20230215-10:09:33|49=EGIDS|50=01001a|56=CASE|44=1|11=90|1=10100669|21=1|386=1|336=NOPL|55=EGMFC001MM19|54=2|60=20230215-10:09:33|38=10000|40=2|59=0|453=1|448=4501|447=D|452=28|354=6|355=Public|10=254|
2023/02/15 10:11:00.126219 8=FIX.4.4|9=216|35=D|34=6|347=UTF-8|52=20230215-10:09:34|49=EGIDS|50=01001a|56=CASE|44=1|11=91|1=10100669|21=1|386=1|336=NOPL|55=EGMFC001MM19|54=2|60=20230215-10:09:34|38=10000|40=2|59=0|453=1|448=4501|447=D|452=28|354=6|355=Public|10=002|
2023/02/15 10:11:32.582209 8=FIX.4.4|9=171|35=8|34=3|49=CASE|52=20230215-10:09:57.950|56=EGIDS|1=10100669|6=1.00|11=88|14=10000.00|17=2|31=1.00|32=10000.00|37=2|38=10000.00|39=2|54=2|55=EGMFC001MM19|150=2|151=0.00|10=079|
2023/02/15 10:11:32.582236 8=FIX.4.4|9=171|35=8|34=4|49=CASE|52=20230215-10:10:48.922|56=EGIDS|1=10100669|6=1.00|11=89|14=10000.00|17=3|31=1.00|32=10000.00|37=3|38=10000.00|39=2|54=2|55=EGMFC001MM19|150=2|151=0.00|10=074|
2023/02/15 10:11:32.582276 8=FIX.4.4|9=171|35=8|34=5|49=CASE|52=20230215-10:11:00.126|56=EGIDS|1=10100669|6=1.00|11=90|14=10000.00|17=4|31=1.00|32=10000.00|37=4|38=10000.00|39=2|54=2|55=EGMFC001MM19|150=2|151=0.00|10=054|
2023/02/15 10:11:32.582282 8=FIX.4.4|9=171|35=8|34=6|49=CASE|52=20230215-10:11:32.582|56=EGIDS|1=10100669|6=1.00|11=91|14=10000.00|17=5|31=1.00|32=10000.00|37=5|38=10000.00|39=2|54=2|55=EGMFC001MM19|150=2|151=0.00|10=069|
2023/02/15 10:12:06.058131 8=FIX.4.4|9=67|35=A|34=1|49=EGIDS|56=CASE|52=20230215-10:12:06|98=0|108=120|141=Y|10=019|
2023/02/15 10:12:06.058255 8=FIX.4.4|9=71|35=A|34=1|49=CASE|52=20230215-10:12:06.058|56=EGIDS|98=0|108=120|141=Y|10=217|
2023/02/15 10:12:06.058299 8=FIX.4.4|9=216|35=D|34=2|347=UTF-8|52=20230215-10:12:06|49=EGIDS|50=01001a|56=CASE|44=1|11=92|1=10100669|21=1|386=1|336=NOPL|55=EGMFC001MM19|54=2|60=20230215-10:12:06|38=10000|40=2|59=0|453=1|448=4501|447=D|452=28|354=6|355=Public|10=241|
2023/02/15 10:14:16.862734 8=FIX.4.4|9=171|35=8|34=2|49=CASE|52=20230215-10:14:16.862|56=EGIDS|1=10100669|6=1.00|11=92|14=10000.00|17=6|31=1.00|32=10000.00|37=6|38=10000.00|39=2|54=2|55=EGMFC001MM19|150=2|151=0.00|10=074|
2023/02/15 10:14:16.862925 8=FIX.4.4|9=52|35=0|34=3|49=CASE|52=20230215-10:14:16.862|56=EGIDS|10=089|
2023/02/15 10:14:26.897148 8=FIX.4.4|9=216|35=D|34=3|347=UTF-8|52=20230215-10:14:26|49=EGIDS|50=01001a|56=CASE|44=1|11=93|1=10100669|21=1|386=1|336=NOPL|55=EGMFC001MM19|54=2|60=20230215-10:14:26|38=10000|40=2|59=0|453=1|448=4501|447=D|452=28|354=6|355=Public|10=251|
2023/02/15 10:17:22.345591 8=FIX.4.4|9=67|35=A|34=1|49=EGIDS|56=CASE|52=20230215-10:17:22|98=0|108=120|141=Y|10=022|
2023/02/15 10:17:22.345728 8=FIX.4.4|9=71|35=A|34=1|49=CASE|52=20230215-10:17:22.345|56=EGIDS|98=0|108=120|141=Y|10=219|
2023/02/15 10:17:22.346042 8=FIX.4.4|9=216|35=D|34=2|347=UTF-8|52=20230215-10:17:22|49=EGIDS|50=01001a|56=CASE|44=1|11=94|1=10100669|21=1|386=1|336=NOPL|55=EGMFC001MM19|54=2|60=20230215-10:17:22|38=10000|40=2|59=0|453=1|448=4501|447=D|452=28|354=6|355=Public|10=249|
2023/02/15 10:18:58.570062 8=FIX.4.4|9=67|35=A|34=1|49=EGIDS|56=CASE|52=20230215-10:18:58|98=0|108=120|141=Y|10=032|
2023/02/15 10:18:58.570198 8=FIX.4.4|9=71|35=A|34=1|49=CASE|52=20230215-10:18:58.570|56=EGIDS|98=0|108=120|141=Y|10=229|
2023/02/15 10:18:58.570780 8=FIX.4.4|9=216|35=D|34=2|347=UTF-8|52=20230215-10:18:58|49=EGIDS|50=01001a|56=CASE|44=1|11=97|1=10100669|21=1|386=1|336=NOPL|55=EGMFC001MM19|54=2|60=20230215-10:18:58|38=10000|40=2|59=0|453=1|448=4501|447=D|452=28|354=6|355=Public|10=016|
2023/02/15 10:20:17.842465 8=FIX.4.4|9=67|35=A|34=1|49=EGIDS|56=CASE|52=20230215-10:20:17|98=0|108=120|141=Y|10=020|
2023/02/15 10:20:17.842653 8=FIX.4.4|9=71|35=A|34=1|49=CASE|52=20230215-10:20:17.842|56=EGIDS|98=0|108=120|141=Y|10=219|
2023/02/15 10:20:17.842686 8=FIX.4.4|9=217|35=D|34=2|347=UTF-8|52=20230215-10:20:17|49=EGIDS|50=01001a|56=CASE|44=1|11=100|1=10100669|21=1|386=1|336=NOPL|55=EGMFC001MM19|54=2|60=20230215-10:20:17|38=10000|40=2|59=0|453=1|448=4501|447=D|452=28|354=6|355=Public|10=026|
2023/02/15 10:25:34.737801 8=FIX.4.4|9=67|35=A|34=1|49=EGIDS|56=CASE|52=20230215-10:25:34|98=0|108=120|141=Y|10=024|
2023/02/15 10:25:34.737943 8=FIX.4.4|9=71|35=A|34=1|49=CASE|52=20230215-10:25:34.737|56=EGIDS|98=0|108=120|141=Y|10=226|
2023/02/15 10:25:34.738280 8=FIX.4.4|9=217|35=D|34=2|347=UTF-8|52=20230215-10:25:34|49=EGIDS|50=01001a|56=CASE|44=1|11=102|1=10100669|21=1|386=1|336=NOPL|55=EGMFC001MM19|54=2|60=20230215-10:25:34|38=10000|40=2|59=0|453=1|448=4501|447=D|452=28|354=6|355=Public|10=036|
2023/02/15 10:25:41.310542 8=FIX.4.4|9=217|35=D|34=3|347=UTF-8|52=20230215-10:25:35|49=EGIDS|50=01001a|56=CASE|44=1|11=103|1=10100669|21=1|386=1|336=NOPL|55=EGMFC001MM19|54=2|60=20230215-10:25:35|38=10000|40=2|59=0|453=1|448=4501|447=D|452=28|354=6|355=Public|10=040|
2023/02/15 10:25:41.313480 8=FIX.4.4|9=172|35=8|34=2|49=CASE|52=20230215-10:25:41.310|56=EGIDS|1=10100669|6=1.00|11=102|14=10000.00|17=1|31=1.00|32=10000.00|37=1|38=10000.00|39=2|54=2|55=EGMFC001MM19|150=2|151=0.00|10=093|
2023/02/15 10:25:41.313502 8=FIX.4.4|9=172|35=8|34=3|49=CASE|52=20230215-10:25:41.313|56=EGIDS|1=10100669|6=1.00|11=103|14=10000.00|17=2|31=1.00|32=10000.00|37=2|38=10000.00|39=2|54=2|55=EGMFC001MM19|150=2|151=0.00|10=100|
2023/02/15 10:25:41.313539 8=FIX.4.4|9=217|35=D|34=4|347=UTF-8|52=20230215-10:25:35|49=EGIDS|50=01001a|56=CASE|44=1|11=104|1=10100669|21=1|386=1|336=NOPL|55=EGMFC001MM19|54=2|60=20230215-10:25:35|38=10000|40=2|59=0|453=1|448=4501|447=D|452=28|354=6|355=Public|10=042|
2023/02/15 10:25:41.330958 8=FIX.4.4|9=217|35=D|34=5|347=UTF-8|52=20230215-10:25:36|49=EGIDS|50=01001a|56=CASE|44=1|11=105|1=10100669|21=1|386=1|336=NOPL|55=EGMFC001MM19|54=2|60=20230215-10:25:36|38=10000|40=2|59=0|453=1|448=4501|447=D|452=28|354=6|355=Public|10=046|
2023/02/15 10:25:41.340734 8=FIX.4.4|9=172|35=8|34=4|49=CASE|52=20230215-10:25:41.330|56=EGIDS|1=10100669|6=1.00|11=104|14=10000.00|17=3|31=1.00|32=10000.00|37=3|38=10000.00|39=2|54=2|55=EGMFC001MM19|150=2|151=0.00|10=103|
2023/02/15 10:25:41.340763 8=FIX.4.4|9=172|35=8|34=5|49=CASE|52=20230215-10:25:41.340|56=EGIDS|1=10100669|6=1.00|11=105|14=10000.00|17=4|31=1.00|32=10000.00|37=4|38=10000.00|39=2|54=2|55=EGMFC001MM19|150=2|151=0.00|10=108|
2023/02/15 10:25:50.577281 8=FIX.4.4|9=217|35=D|34=6|347=UTF-8|52=20230215-10:25:50|49=EGIDS|50=01001a|56=CASE|44=1|11=106|1=10100669|21=1|386=1|336=NOPL|55=EGMFC001MM19|54=2|60=20230215-10:25:50|38=10000|40=2|59=0|453=1|448=4501|447=D|452=28|354=6|355=Public|10=040|
2023/02/15 10:25:50.579096 8=FIX.4.4|9=172|35=8|34=6|49=CASE|52=20230215-10:25:50.579|56=EGIDS|1=10100669|6=1.00|11=106|14=10000.00|17=5|31=1.00|32=10000.00|37=5|38=10000.00|39=2|54=2|55=EGMFC001MM19|150=2|151=0.00|10=126|
2023/02/15 10:25:50.849647 8=FIX.4.4|9=217|35=D|34=7|347=UTF-8|52=20230215-10:25:50|49=EGIDS|50=01001a|56=CASE|44=1|11=107|1=10100669|21=1|386=1|336=NOPL|55=EGMFC001MM19|54=2|60=20230215-10:25:50|38=10000|40=2|59=0|453=1|448=4501|447=D|452=28|354=6|355=Public|10=042|
2023/02/15 10:25:50.851196 8=FIX.4.4|9=172|35=8|34=7|49=CASE|52=20230215-10:25:50.851|56=EGIDS|1=10100669|6=1.00|11=107|14=10000.00|17=6|31=1.00|32=10000.00|37=6|38=10000.00|39=2|54=2|55=EGMFC001MM19|150=2|151=0.00|10=123|
2023/02/15 10:25:51.121912 8=FIX.4.4|9=217|35=D|34=8|347=UTF-8|52=20230215-10:25:51|49=EGIDS|50=01001a|56=CASE|44=1|11=108|1=10100669|21=1|386=1|336=NOPL|55=EGMFC001MM19|54=2|60=20230215-10:25:51|38=10000|40=2|59=0|453=1|448=4501|447=D|452=28|354=6|355=Public|10=046|
2023/02/15 10:25:51.123695 8=FIX.4.4|9=172|35=8|34=8|49=CASE|52=20230215-10:25:51.123|56=EGIDS|1=10100669|6=1.00|11=108|14=10000.00|17=7|31=1.00|32=10000.00|37=7|38=10000.00|39=2|54=2|55=EGMFC001MM19|150=2|151=0.00|10=120|
2023/02/15 10:25:51.457350 8=FIX.4.4|9=217|35=D|34=9|347=UTF-8|52=20230215-10:25:51|49=EGIDS|50=01001a|56=CASE|44=1|11=109|1=10100669|21=1|386=1|336=NOPL|55=EGMFC001MM19|54=2|60=20230215-10:25:51|38=10000|40=2|59=0|453=1|448=4501|447=D|452=28|354=6|355=Public|10=048|
2023/02/15 10:25:51.458969 8=FIX.4.4|9=172|35=8|34=9|49=CASE|52=20230215-10:25:51.458|56=EGIDS|1=10100669|6=1.00|11=109|14=10000.00|17=8|31=1.00|32=10000.00|37=8|38=10000.00|39=2|54=2|55=EGMFC001MM19|150=2|151=0.00|10=135|
2023/02/15 10:25:52.586456 8=FIX.4.4|9=218|35=D|34=10|347=UTF-8|52=20230215-10:25:52|49=EGIDS|50=01001a|56=CASE|44=1|11=110|1=10100669|21=1|386=1|336=NOPL|55=EGMFC001MM19|54=2|60=20230215-10:25:52|38=10000|40=2|59=0|453=1|448=4501|447=D|452=28|354=6|355=Public|10=083|
2023/02/15 10:25:52.588230 8=FIX.4.4|9=173|35=8|34=10|49=CASE|52=20230215-10:25:52.588|56=EGIDS|1=10100669|6=1.00|11=110|14=10000.00|17=9|31=1.00|32=10000.00|37=9|38=10000.00|39=2|54=2|55=EGMFC001MM19|150=2|151=0.00|10=175|
2023/02/15 10:25:52.874046 8=FIX.4.4|9=218|35=D|34=11|347=UTF-8|52=20230215-10:25:52|49=EGIDS|50=01001a|56=CASE|44=1|11=111|1=10100669|21=1|386=1|336=NOPL|55=EGMFC001MM19|54=2|60=20230215-10:25:52|38=10000|40=2|59=0|453=1|448=4501|447=D|452=28|354=6|355=Public|10=085|
2023/02/15 10:25:52.878499 8=FIX.4.4|9=175|35=8|34=11|49=CASE|52=20230215-10:25:52.878|56=EGIDS|1=10100669|6=1.00|11=111|14=10000.00|17=10|31=1.00|32=10000.00|37=10|38=10000.00|39=2|54=2|55=EGMFC001MM19|150=2|151=0.00|10=005|
2023/02/15 10:25:53.075543 8=FIX.4.4|9=218|35=D|34=12|347=UTF-8|52=20230215-10:25:53|49=EGIDS|50=01001a|56=CASE|44=1|11=112|1=10100669|21=1|386=1|336=NOPL|55=EGMFC001MM19|54=2|60=20230215-10:25:53|38=10000|40=2|59=0|453=1|448=4501|447=D|452=28|354=6|355=Public|10=089|
2023/02/15 10:25:53.077046 8=FIX.4.4|9=175|35=8|34=12|49=CASE|52=20230215-10:25:53.077|56=EGIDS|1=10100669|6=1.00|11=112|14=10000.00|17=11|31=1.00|32=10000.00|37=11|38=10000.00|39=2|54=2|55=EGMFC001MM19|150=2|151=0.00|10=001|
2023/02/15 10:25:53.322332 8=FIX.4.4|9=218|35=D|34=13|347=UTF-8|52=20230215-10:25:53|49=EGIDS|50=01001a|56=CASE|44=1|11=113|1=10100669|21=1|386=1|336=NOPL|55=EGMFC001MM19|54=2|60=20230215-10:25:53|38=10000|40=2|59=0|453=1|448=4501|447=D|452=28|354=6|355=Public|10=091|
2023/02/15 10:25:53.324636 8=FIX.4.4|9=175|35=8|34=13|49=CASE|52=20230215-10:25:53.324|56=EGIDS|1=10100669|6=1.00|11=113|14=10000.00|17=12|31=1.00|32=10000.00|37=12|38=10000.00|39=2|54=2|55=EGMFC001MM19|150=2|151=0.00|10=000|
2023/02/15 10:25:57.594595 8=FIX.4.4|9=219|35=D|34=14|347=UTF-8|52=20230215-10:25:57|49=EGIDS|50=01001a|56=CASE|44=100|11=114|1=10100400|21=1|386=1|336=NOPL|55=EGMFC001MM19|54=1|60=20230215-10:25:57|38=1000|40=2|59=0|453=1|448=4501|447=D|452=28|354=6|355=Public|10=132|
2023/02/15 10:25:57.596281 8=FIX.4.4|9=176|35=8|34=14|49=CASE|52=20230215-10:25:57.596|56=EGIDS|1=10100400|6=100.00|11=114|14=1000.00|17=13|31=100.00|32=1000.00|37=13|38=1000.00|39=2|54=1|55=EGMFC001MM19|150=2|151=0.00|10=050|
2023/02/15 10:25:58.130086 8=FIX.4.4|9=219|35=D|34=15|347=UTF-8|52=20230215-10:25:58|49=EGIDS|50=01001a|56=CASE|44=100|11=115|1=10100400|21=1|386=1|336=NOPL|55=EGMFC001MM19|54=1|60=20230215-10:25:58|38=1000|40=2|59=0|453=1|448=4501|447=D|452=28|354=6|355=Public|10=136|
2023/02/15 10:25:58.131618 8=FIX.4.4|9=176|35=8|34=15|49=CASE|52=20230215-10:25:58.131|56=EGIDS|1=10100400|6=100.00|11=115|14=1000.00|17=14|31=100.00|32=1000.00|37=14|38=1000.00|39=2|54=1|55=EGMFC001MM19|150=2|151=0.00|10=040|
2023/02/15 10:25:58.595134 8=FIX.4.4|9=219|35=D|34=16|347=UTF-8|52=20230215-10:25:58|49=EGIDS|50=01001a|56=CASE|44=100|11=116|1=10100400|21=1|386=1|336=NOPL|55=EGMFC001MM19|54=1|60=20230215-10:25:58|38=1000|40=2|59=0|453=1|448=4501|447=D|452=28|354=6|355=Public|10=138|
2023/02/15 10:25:58.596683 8=FIX.4.4|9=176|35=8|34=16|49=CASE|52=20230215-10:25:58.596|56=EGIDS|1=10100400|6=100.00|11=116|14=1000.00|17=15|31=100.00|32=1000.00|37=15|38=1000.00|39=2|54=1|55=EGMFC001MM19|150=2|151=0.00|10=059|
2023/02/15 10:25:58.946662 8=FIX.4.4|9=219|35=D|34=17|347=UTF-8|52=20230215-10:25:58|49=EGIDS|50=01001a|56=CASE|44=100|11=117|1=10100400|21=1|386=1|336=NOPL|55=EGMFC001MM19|54=1|60=20230215-10:25:58|38=1000|40=2|59=0|453=1|448=4501|447=D|452=28|354=6|355=Public|10=140|
2023/02/15 10:25:58.948377 8=FIX.4.4|9=176|35=8|34=17|49=CASE|52=20230215-10:25:58.948|56=EGIDS|1=10100400|6=100.00|11=117|14=1000.00|17=16|31=100.00|32=1000.00|37=16|38=1000.00|39=2|54=1|55=EGMFC001MM19|150=2|151=0.00|10=064|
2023/02/15 10:25:59.290776 8=FIX.4.4|9=219|35=D|34=18|347=UTF-8|52=20230215-10:25:59|49=EGIDS|50=01001a|56=CASE|44=100|11=118|1=10100400|21=1|386=1|336=NOPL|55=EGMFC001MM19|54=1|60=20230215-10:25:59|38=1000|40=2|59=0|453=1|448=4501|447=D|452=28|354=6|355=Public|10=144|
2023/02/15 10:25:59.337384 8=FIX.4.4|9=176|35=8|34=18|49=CASE|52=20230215-10:25:59.337|56=EGIDS|1=10100400|6=100.00|11=118|14=1000.00|17=17|31=100.00|32=1000.00|37=17|38=1000.00|39=2|54=1|55=EGMFC001MM19|150=2|151=0.00|10=061|
2023/02/15 10:25:59.666324 8=FIX.4.4|9=219|35=D|34=19|347=UTF-8|52=20230215-10:25:59|49=EGIDS|50=01001a|56=CASE|44=100|11=119|1=10100400|21=1|386=1|336=NOPL|55=EGMFC001MM19|54=1|60=20230215-10:25:59|38=1000|40=2|59=0|453=1|448=4501|447=D|452=28|354=6|355=Public|10=146|
2023/02/15 10:25:59.667802 8=FIX.4.4|9=176|35=8|34=19|49=CASE|52=20230215-10:25:59.667|56=EGIDS|1=10100400|6=100.00|11=119|14=1000.00|17=18|31=100.00|32=1000.00|37=18|38=1000.00|39=2|54=1|55=EGMFC001MM19|150=2|151=0.00|10=071|
2023/02/15 10:25:59.946176 8=FIX.4.4|9=219|35=D|34=20|347=UTF-8|52=20230215-10:25:59|49=EGIDS|50=01001a|56=CASE|44=100|11=120|1=10100400|21=1|386=1|336=NOPL|55=EGMFC001MM19|54=1|60=20230215-10:25:59|38=1000|40=2|59=0|453=1|448=4501|447=D|452=28|354=6|355=Public|10=130|
2023/02/15 10:25:59.947616 8=FIX.4.4|9=176|35=8|34=20|49=CASE|52=20230215-10:25:59.947|56=EGIDS|1=10100400|6=100.00|11=120|14=1000.00|17=19|31=100.00|32=1000.00|37=19|38=1000.00|39=2|54=1|55=EGMFC001MM19|150=2|151=0.00|10=058|
2023/02/15 10:26:00.193949 8=FIX.4.4|9=219|35=D|34=21|347=UTF-8|52=20230215-10:26:00|49=EGIDS|50=01001a|56=CASE|44=100|11=121|1=10100400|21=1|386=1|336=NOPL|55=EGMFC001MM19|54=1|60=20230215-10:26:00|38=1000|40=2|59=0|453=1|448=4501|447=D|452=28|354=6|355=Public|10=106|
2023/02/15 10:26:00.195556 8=FIX.4.4|9=176|35=8|34=21|49=CASE|52=20230215-10:26:00.195|56=EGIDS|1=10100400|6=100.00|11=121|14=1000.00|17=20|31=100.00|32=1000.00|37=20|38=1000.00|39=2|54=1|55=EGMFC001MM19|150=2|151=0.00|10=026|
2023/02/15 10:26:00.434524 8=FIX.4.4|9=219|35=D|34=22|347=UTF-8|52=20230215-10:26:00|49=EGIDS|50=01001a|56=CASE|44=100|11=122|1=10100400|21=1|386=1|336=NOPL|55=EGMFC001MM19|54=1|60=20230215-10:26:00|38=1000|40=2|59=0|453=1|448=4501|447=D|452=28|354=6|355=Public|10=108|
2023/02/15 10:26:00.435982 8=FIX.4.4|9=176|35=8|34=22|49=CASE|52=20230215-10:26:00.435|56=EGIDS|1=10100400|6=100.00|11=122|14=1000.00|17=21|31=100.00|32=1000.00|37=21|38=1000.00|39=2|54=1|55=EGMFC001MM19|150=2|151=0.00|10=027|
2023/02/15 10:26:00.665990 8=FIX.4.4|9=219|35=D|34=23|347=UTF-8|52=20230215-10:26:00|49=EGIDS|50=01001a|56=CASE|44=100|11=123|1=10100400|21=1|386=1|336=NOPL|55=EGMFC001MM19|54=1|60=20230215-10:26:00|38=1000|40=2|59=0|453=1|448=4501|447=D|452=28|354=6|355=Public|10=110|
2023/02/15 10:26:00.667471 8=FIX.4.4|9=176|35=8|34=23|49=CASE|52=20230215-10:26:00.667|56=EGIDS|1=10100400|6=100.00|11=123|14=1000.00|17=22|31=100.00|32=1000.00|37=22|38=1000.00|39=2|54=1|55=EGMFC001MM19|150=2|151=0.00|10=038|
2023/02/15 10:26:00.850075 8=FIX.4.4|9=219|35=D|34=24|347=UTF-8|52=20230215-10:26:00|49=EGIDS|50=01001a|56=CASE|44=100|11=124|1=10100400|21=1|386=1|336=NOPL|55=EGMFC001MM19|54=1|60=20230215-10:26:00|38=1000|40=2|59=0|453=1|448=4501|447=D|452=28|354=6|355=Public|10=112|
2023/02/15 10:26:00.851683 8=FIX.4.4|9=176|35=8|34=24|49=CASE|52=20230215-10:26:00.851|56=EGIDS|1=10100400|6=100.00|11=124|14=1000.00|17=23|31=100.00|32=1000.00|37=23|38=1000.00|39=2|54=1|55=EGMFC001MM19|150=2|151=0.00|10=037|
2023/02/15 10:26:01.030988 8=FIX.4.4|9=219|35=D|34=25|347=UTF-8|52=20230215-10:26:01|49=EGIDS|50=01001a|56=CASE|44=100|11=125|1=10100400|21=1|386=1|336=NOPL|55=EGMFC001MM19|54=1|60=20230215-10:26:01|38=1000|40=2|59=0|453=1|448=4501|447=D|452=28|354=6|355=Public|10=116|
2023/02/15 10:26:01.032673 8=FIX.4.4|9=176|35=8|34=25|49=CASE|52=20230215-10:26:01.032|56=EGIDS|1=10100400|6=100.00|11=125|14=1000.00|17=24|31=100.00|32=1000.00|37=24|38=1000.00|39=2|54=1|55=EGMFC001MM19|150=2|151=0.00|10=033|
2023/02/15 10:26:01.418656 8=FIX.4.4|9=219|35=D|34=26|347=UTF-8|52=20230215-10:26:01|49=EGIDS|50=01001a|56=CASE|44=100|11=126|1=10100400|21=1|386=1|336=NOPL|55=EGMFC001MM19|54=1|60=20230215-10:26:01|38=1000|40=2|59=0|453=1|448=4501|447=D|452=28|354=6|355=Public|10=118|
2023/02/15 10:26:01.419968 8=FIX.4.4|9=176|35=8|34=26|49=CASE|52=20230215-10:26:01.419|56=EGIDS|1=10100400|6=100.00|11=126|14=1000.00|17=25|31=100.00|32=1000.00|37=25|38=1000.00|39=2|54=1|55=EGMFC001MM19|150=2|151=0.00|10=046|
2023/02/15 10:28:01.421002 8=FIX.4.4|9=53|35=0|34=27|49=CASE|52=20230215-10:28:01.420|56=EGIDS|10=133|
2023/02/15 10:28:25.420404 8=FIX.4.4|9=62|35=1|34=28|49=CASE|52=20230215-10:28:25.420|56=EGIDS|112=TEST|10=159|
2023/02/15 10:28:25.437881 8=FIX.4.4|9=58|35=0|49=EGIDS|34=27|56=CASE|52=20230215-10:28:25|112=TEST|10=222|
2023/02/15 10:30:17.075881 8=FIX.4.4|9=67|35=A|34=1|49=EGIDS|56=CASE|52=20230215-10:30:17|98=0|108=120|141=Y|10=021|
2023/02/15 10:30:17.076260 8=FIX.4.4|9=71|35=A|34=1|49=CASE|52=20230215-10:30:17.076|56=EGIDS|98=0|108=120|141=Y|10=219|
2023/02/15 10:30:17.076274 8=FIX.4.4|9=218|35=D|34=2|347=UTF-8|52=20230215-10:30:17|49=EGIDS|50=01001a|56=CASE|44=100|11=128|1=10100400|21=1|386=1|336=NOPL|55=EGMFC001MM19|54=1|60=20230215-10:30:17|38=1000|40=2|59=0|453=1|448=4501|447=D|452=28|354=6|355=Public|10=069|
2023/02/15 10:30:17.078449 8=FIX.4.4|9=173|35=8|34=2|49=CASE|52=20230215-10:30:17.078|56=EGIDS|1=10100400|6=100.00|11=128|14=1000.00|17=1|31=100.00|32=1000.00|37=1|38=1000.00|39=2|54=1|55=EGMFC001MM19|150=2|151=0.00|10=142|
2023/02/15 10:30:18.266886 8=FIX.4.4|9=218|35=D|34=3|347=UTF-8|52=20230215-10:30:18|49=EGIDS|50=01001a|56=CASE|44=100|11=129|1=10100400|21=1|386=1|336=NOPL|55=EGMFC001MM19|54=1|60=20230215-10:30:18|38=1000|40=2|59=0|453=1|448=4501|447=D|452=28|354=6|355=Public|10=073|
2023/02/15 10:30:18.269777 8=FIX.4.4|9=173|35=8|34=3|49=CASE|52=20230215-10:30:18.269|56=EGIDS|1=10100400|6=100.00|11=129|14=1000.00|17=2|31=100.00|32=1000.00|37=2|38=1000.00|39=2|54=1|55=EGMFC001MM19|150=2|151=0.00|10=149|
2023/02/15 10:32:15.043336 8=FIX.4.4|9=67|35=A|34=1|49=EGIDS|56=CASE|52=20230215-10:32:15|98=0|108=120|141=Y|10=021|
2023/02/15 10:32:15.043465 8=FIX.4.4|9=71|35=A|34=1|49=CASE|52=20230215-10:32:15.043|56=EGIDS|98=0|108=120|141=Y|10=213|
2023/02/15 10:32:15.044175 8=FIX.4.4|9=218|35=D|34=2|347=UTF-8|52=20230215-10:32:15|49=EGIDS|50=01001a|56=CASE|44=100|11=131|1=10100400|21=1|386=1|336=NOPL|55=EGMFC001MM19|54=1|60=20230215-10:32:15|38=1000|40=2|59=0|453=1|448=4501|447=D|452=28|354=6|355=Public|10=063|
2023/02/15 10:32:15.045687 8=FIX.4.4|9=173|35=8|34=2|49=CASE|52=20230215-10:32:15.045|56=EGIDS|1=10100400|6=100.00|11=131|14=1000.00|17=1|31=100.00|32=1000.00|37=1|38=1000.00|39=2|54=1|55=EGMFC001MM19|150=2|151=0.00|10=130|
2023/02/15 10:32:16.026915 8=FIX.4.4|9=218|35=D|34=3|347=UTF-8|52=20230215-10:32:16|49=EGIDS|50=01001a|56=CASE|44=100|11=132|1=10100400|21=1|386=1|336=NOPL|55=EGMFC001MM19|54=1|60=20230215-10:32:16|38=1000|40=2|59=0|453=1|448=4501|447=D|452=28|354=6|355=Public|10=067|
2023/02/15 10:32:16.028823 8=FIX.4.4|9=173|35=8|34=3|49=CASE|52=20230215-10:32:16.028|56=EGIDS|1=10100400|6=100.00|11=132|14=1000.00|17=2|31=100.00|32=1000.00|37=2|38=1000.00|39=2|54=1|55=EGMFC001MM19|150=2|151=0.00|10=136|
2023/02/15 10:34:16.029564 8=FIX.4.4|9=52|35=0|34=4|49=CASE|52=20230215-10:34:16.029|56=EGIDS|10=087|
2023/02/15 10:34:40.029779 8=FIX.4.4|9=61|35=1|34=5|49=CASE|52=20230215-10:34:40.029|56=EGIDS|112=TEST|10=104|
2023/02/15 10:34:40.045207 8=FIX.4.4|9=57|35=0|49=EGIDS|34=4|56=CASE|52=20230215-10:34:40|112=TEST|10=162|
2023/02/15 10:36:06.938226 8=FIX.4.4|9=67|35=A|34=1|49=EGIDS|56=CASE|52=20230215-10:36:06|98=0|108=120|141=Y|10=025|
2023/02/15 10:36:06.938357 8=FIX.4.4|9=71|35=A|34=1|49=CASE|52=20230215-10:36:06.938|56=EGIDS|98=0|108=120|141=Y|10=230|
2023/02/15 10:36:06.938783 8=FIX.4.4|9=218|35=D|34=2|347=UTF-8|52=20230215-10:36:06|49=EGIDS|50=01001a|56=CASE|44=100|11=133|1=10100400|21=1|386=1|336=NOPL|55=EGMFC001MM19|54=1|60=20230215-10:36:06|38=1000|40=2|59=0|453=1|448=4501|447=D|452=28|354=6|355=Public|10=073|
2023/02/15 10:36:06.940494 8=FIX.4.4|9=173|35=8|34=2|49=CASE|52=20230215-10:36:06.940|56=EGIDS|1=10100400|6=100.00|11=133|14=1000.00|17=1|31=100.00|32=1000.00|37=1|38=1000.00|39=2|54=1|55=EGMFC001MM19|150=2|151=0.00|10=140|
2023/02/15 10:36:09.025731 8=FIX.4.4|9=218|35=D|34=3|347=UTF-8|52=20230215-10:36:09|49=EGIDS|50=01001a|56=CASE|44=100|11=134|1=10100400|21=1|386=1|336=NOPL|55=EGMFC001MM19|54=1|60=20230215-10:36:09|38=1000|40=2|59=0|453=1|448=4501|447=D|452=28|354=6|355=Public|10=081|
2023/02/15 10:36:09.027157 8=FIX.4.4|9=173|35=8|34=3|49=CASE|52=20230215-10:36:09.027|56=EGIDS|1=10100400|6=100.00|11=134|14=1000.00|17=2|31=100.00|32=1000.00|37=2|38=1000.00|39=2|54=1|55=EGMFC001MM19|150=2|151=0.00|10=143|
2023/02/15 10:36:09.537636 8=FIX.4.4|9=218|35=D|34=4|347=UTF-8|52=20230215-10:36:09|49=EGIDS|50=01001a|56=CASE|44=100|11=135|1=10100400|21=1|386=1|336=NOPL|55=EGMFC001MM19|54=1|60=20230215-10:36:09|38=1000|40=2|59=0|453=1|448=4501|447=D|452=28|354=6|355=Public|10=083|
2023/02/15 10:36:09.539366 8=FIX.4.4|9=173|35=8|34=4|49=CASE|52=20230215-10:36:09.539|56=EGIDS|1=10100400|6=100.00|11=135|14=1000.00|17=3|31=100.00|32=1000.00|37=3|38=1000.00|39=2|54=1|55=EGMFC001MM19|150=2|151=0.00|10=155|
2023/02/15 10:37:28.490151 8=FIX.4.4|9=67|35=A|34=1|49=EGIDS|56=CASE|52=20230215-10:37:28|98=0|108=120|141=Y|10=030|
2023/02/15 10:37:28.490286 8=FIX.4.4|9=71|35=A|34=1|49=CASE|52=20230215-10:37:28.490|56=EGIDS|98=0|108=120|141=Y|10=228|
2023/02/15 10:37:28.490658 8=FIX.4.4|9=218|35=D|34=2|347=UTF-8|52=20230215-10:37:28|49=EGIDS|50=01001a|56=CASE|44=100|11=136|1=10100400|21=1|386=1|336=NOPL|55=EGMFC001MM19|54=1|60=20230215-10:37:28|38=1000|40=2|59=0|453=1|448=4501|447=D|452=28|354=6|355=Public|10=086|
2023/02/15 10:37:28.492164 8=FIX.4.4|9=173|35=8|34=2|49=CASE|52=20230215-10:37:28.492|56=EGIDS|1=10100400|6=100.00|11=136|14=1000.00|17=1|31=100.00|32=1000.00|37=1|38=1000.00|39=2|54=1|55=EGMFC001MM19|150=2|151=0.00|10=150|
2023/02/15 10:37:30.169716 8=FIX.4.4|9=218|35=D|34=3|347=UTF-8|52=20230215-10:37:30|49=EGIDS|50=01001a|56=CASE|44=100|11=137|1=10100400|21=1|386=1|336=NOPL|55=EGMFC001MM19|54=1|60=20230215-10:37:30|38=1000|40=2|59=0|453=1|448=4501|447=D|452=28|354=6|355=Public|10=074|
2023/02/15 10:37:30.171164 8=FIX.4.4|9=173|35=8|34=3|49=CASE|52=20230215-10:37:30.171|56=EGIDS|1=10100400|6=100.00|11=137|14=1000.00|17=2|31=100.00|32=1000.00|37=2|38=1000.00|39=2|54=1|55=EGMFC001MM19|150=2|151=0.00|10=141|
2023/02/15 10:37:38.498924 8=FIX.4.4|9=218|35=D|34=4|347=UTF-8|52=20230215-10:37:38|49=EGIDS|50=01001a|56=CASE|44=100|11=138|1=10100400|21=1|386=1|336=NOPL|55=EGMFC001MM19|54=1|60=20230215-10:37:38|38=1000|40=2|59=1|453=1|448=4501|447=D|452=28|354=6|355=Public|10=093|
2023/02/15 10:37:38.500629 8=FIX.4.4|9=173|35=8|34=4|49=CASE|52=20230215-10:37:38.500|56=EGIDS|1=10100400|6=100.00|11=138|14=1000.00|17=3|31=100.00|32=1000.00|37=3|38=1000.00|39=2|54=1|55=EGMFC001MM19|150=2|151=0.00|10=149|
2023/02/15 10:37:39.747272 8=FIX.4.4|9=218|35=D|34=5|347=UTF-8|52=20230215-10:37:39|49=EGIDS|50=01001a|56=CASE|44=100|11=139|1=10100400|21=1|386=1|336=NOPL|55=EGMFC001MM19|54=1|60=20230215-10:37:39|38=1000|40=2|59=1|453=1|448=4501|447=D|452=28|354=6|355=Public|10=097|
2023/02/15 10:37:39.749579 8=FIX.4.4|9=173|35=8|34=5|49=CASE|52=20230215-10:37:39.749|56=EGIDS|1=10100400|6=100.00|11=139|14=1000.00|17=4|31=100.00|32=1000.00|37=4|38=1000.00|39=2|54=1|55=EGMFC001MM19|150=2|151=0.00|10=169|
2023/02/15 10:37:49.570927 8=FIX.4.4|9=218|35=D|34=6|347=UTF-8|52=20230215-10:37:49|49=EGIDS|50=01001a|56=CASE|44=100|11=140|1=10100400|21=1|386=1|336=NOPL|55=EGMFC001MM19|54=1|60=20230215-10:37:49|38=1000|40=2|59=3|453=1|448=4501|447=D|452=28|354=6|355=Public|10=094|
2023/02/15 10:37:49.572526 8=FIX.4.4|9=173|35=8|34=6|49=CASE|52=20230215-10:37:49.572|56=EGIDS|1=10100400|6=100.00|11=140|14=1000.00|17=5|31=100.00|32=1000.00|37=5|38=1000.00|39=2|54=1|55=EGMFC001MM19|150=2|151=0.00|10=159|
2023/02/15 10:37:50.330690 8=FIX.4.4|9=218|35=D|34=7|347=UTF-8|52=20230215-10:37:50|49=EGIDS|50=01001a|56=CASE|44=100|11=141|1=10100400|21=1|386=1|336=NOPL|55=EGMFC001MM19|54=1|60=20230215-10:37:50|38=1000|40=2|59=3|453=1|448=4501|447=D|452=28|354=6|355=Public|10=080|
2023/02/15 10:37:50.332231 8=FIX.4.4|9=173|35=8|34=7|49=CASE|52=20230215-10:37:50.332|56=EGIDS|1=10100400|6=100.00|11=141|14=1000.00|17=6|31=100.00|32=1000.00|37=6|38=1000.00|39=2|54=1|55=EGMFC001MM19|150=2|151=0.00|10=149|
2023/02/15 10:37:50.738591 8=FIX.4.4|9=218|35=D|34=8|347=UTF-8|52=20230215-10:37:50|49=EGIDS|50=01001a|56=CASE|44=100|11=142|1=10100400|21=1|386=1|336=NOPL|55=EGMFC001MM19|54=1|60=20230215-10:37:50|38=1000|40=2|59=3|453=1|448=4501|447=D|452=28|354=6|355=Public|10=082|
2023/02/15 10:37:50.740273 8=FIX.4.4|9=173|35=8|34=8|49=CASE|52=20230215-10:37:50.740|56=EGIDS|1=10100400|6=100.00|11=142|14=1000.00|17=7|31=100.00|32=1000.00|37=7|38=1000.00|39=2|54=1|55=EGMFC001MM19|150=2|151=0.00|10=156|
2023/02/15 10:37:51.163106 8=FIX.4.4|9=218|35=D|34=9|347=UTF-8|52=20230215-10:37:51|49=EGIDS|50=01001a|56=CASE|44=100|11=143|1=10100400|21=1|386=1|336=NOPL|55=EGMFC001MM19|54=1|60=20230215-10:37:51|38=1000|40=2|59=3|453=1|448=4501|447=D|452=28|354=6|355=Public|10=086|
2023/02/15 10:37:51.164615 8=FIX.4.4|9=173|35=8|34=9|49=CASE|52=20230215-10:37:51.164|56=EGIDS|1=10100400|6=100.00|11=143|14=1000.00|17=8|31=100.00|32=1000.00|37=8|38=1000.00|39=2|54=1|55=EGMFC001MM19|150=2|151=0.00|10=161|
2023/02/15 10:39:51.165653 8=FIX.4.4|9=53|35=0|34=10|49=CASE|52=20230215-10:39:51.165|56=EGIDS|10=138|
2023/02/15 10:40:15.165636 8=FIX.4.4|9=62|35=1|34=11|49=CASE|52=20230215-10:40:15.165|56=EGIDS|112=TEST|10=150|
2023/02/15 10:40:15.189978 8=FIX.4.4|9=58|35=0|49=EGIDS|34=10|56=CASE|52=20230215-10:40:15|112=TEST|10=207|
2023/02/15 10:41:11.074712 8=FIX.4.4|9=67|35=A|34=1|49=EGIDS|56=CASE|52=20230215-10:41:11|98=0|108=120|141=Y|10=017|
2023/02/15 10:41:11.074864 8=FIX.4.4|9=71|35=A|34=1|49=CASE|52=20230215-10:41:11.074|56=EGIDS|98=0|108=120|141=Y|10=213|
2023/02/15 10:41:11.075047 8=FIX.4.4|9=218|35=D|34=2|347=UTF-8|52=20230215-10:41:11|49=EGIDS|50=01001a|56=CASE|44=100|11=144|1=10100400|21=1|386=1|336=NOPL|55=EGMFC001MM19|54=1|60=20230215-10:41:11|38=1000|40=2|59=3|453=1|448=4501|447=D|452=28|354=6|355=Public|10=062|
2023/02/15 10:41:11.076866 8=FIX.4.4|9=173|35=8|34=2|49=CASE|52=20230215-10:41:11.076|56=EGIDS|1=10100400|6=100.00|11=144|14=1000.00|17=1|31=100.00|32=1000.00|37=1|38=1000.00|39=2|54=1|55=EGMFC001MM19|150=2|151=0.00|10=134|
2023/02/15 10:41:12.386169 8=FIX.4.4|9=218|35=D|34=3|347=UTF-8|52=20230215-10:41:12|49=EGIDS|50=01001a|56=CASE|44=100|11=145|1=10100400|21=1|386=1|336=NOPL|55=EGMFC001MM19|54=1|60=20230215-10:41:12|38=1000|40=2|59=3|453=1|448=4501|447=D|452=28|354=6|355=Public|10=066|
2023/02/15 10:41:12.387900 8=FIX.4.4|9=173|35=8|34=3|49=CASE|52=20230215-10:41:12.387|56=EGIDS|1=10100400|6=100.00|11=145|14=1000.00|17=2|31=100.00|32=1000.00|37=2|38=1000.00|39=2|54=1|55=EGMFC001MM19|150=2|151=0.00|10=144|
2023/02/15 10:41:15.266809 8=FIX.4.4|9=218|35=D|34=4|347=UTF-8|52=20230215-10:41:15|49=EGIDS|50=01001a|56=CASE|44=100|11=146|1=10100400|21=1|386=1|336=NOPL|55=EGMFC001MM19|54=1|60=20230215-10:41:15|38=1000|40=2|59=3|453=1|448=4501|447=D|452=28|354=6|355=Public|10=074|
2023/02/15 10:41:15.271156 8=FIX.4.4|9=173|35=8|34=4|49=CASE|52=20230215-10:41:15.271|56=EGIDS|1=10100400|6=100.00|11=146|14=1000.00|17=3|31=100.00|32=1000.00|37=3|38=1000.00|39=2|54=1|55=EGMFC001MM19|150=2|151=0.00|10=143|
2023/02/15 10:41:15.737913 8=FIX.4.4|9=218|35=D|34=5|347=UTF-8|52=20230215-10:41:15|49=EGIDS|50=01001a|56=CASE|44=100|11=147|1=10100400|21=1|386=1|336=NOPL|55=EGMFC001MM19|54=1|60=20230215-10:41:15|38=1000|40=2|59=3|453=1|448=4501|447=D|452=28|354=6|355=Public|10=076|
2023/02/15 10:41:15.740066 8=FIX.4.4|9=173|35=8|34=5|49=CASE|52=20230215-10:41:15.740|56=EGIDS|1=10100400|6=100.00|11=147|14=1000.00|17=4|31=100.00|32=1000.00|37=4|38=1000.00|39=2|54=1|55=EGMFC001MM19|150=2|151=0.00|10=148|
2023/02/15 10:41:16.097823 8=FIX.4.4|9=218|35=D|34=6|347=UTF-8|52=20230215-10:41:16|49=EGIDS|50=01001a|56=CASE|44=100|11=148|1=10100400|21=1|386=1|336=NOPL|55=EGMFC001MM19|54=1|60=20230215-10:41:16|38=1000|40=2|59=3|453=1|448=4501|447=D|452=28|354=6|355=Public|10=080|
2023/02/15 10:41:16.099458 8=FIX.4.4|9=173|35=8|34=6|49=CASE|52=20230215-10:41:16.099|56=EGIDS|1=10100400|6=100.00|11=148|14=1000.00|17=5|31=100.00|32=1000.00|37=5|38=1000.00|39=2|54=1|55=EGMFC001MM19|150=2|151=0.00|10=160|
2023/02/15 10:41:22.722628 8=FIX.4.4|9=227|35=D|34=7|347=UTF-8|52=20230215-10:41:22|49=EGIDS|50=01001a|56=CASE|44=100|11=149|1=10100400|21=1|386=1|336=NOPL|55=EGMFC001MM19|54=1|60=20230215-10:41:22|38=1000|40=2|59=1|453=1|448=4501|447=D|452=28|354=6|355=Public|110=1000|10=219|
2023/02/15 10:41:22.724123 8=FIX.4.4|9=173|35=8|34=7|49=CASE|52=20230215-10:41:22.724|56=EGIDS|1=10100400|6=100.00|11=149|14=1000.00|17=6|31=100.00|32=1000.00|37=6|38=1000.00|39=2|54=1|55=EGMFC001MM19|150=2|151=0.00|10=156|
2023/02/15 10:41:23.387023 8=FIX.4.4|9=227|35=D|34=8|347=UTF-8|52=20230215-10:41:23|49=EGIDS|50=01001a|56=CASE|44=100|11=150|1=10100400|21=1|386=1|336=NOPL|55=EGMFC001MM19|54=1|60=20230215-10:41:23|38=1000|40=2|59=1|453=1|448=4501|447=D|452=28|354=6|355=Public|110=1000|10=214|
2023/02/15 10:41:23.389554 8=FIX.4.4|9=173|35=8|34=8|49=CASE|52=20230215-10:41:23.389|56=EGIDS|1=10100400|6=100.00|11=150|14=1000.00|17=7|31=100.00|32=1000.00|37=7|38=1000.00|39=2|54=1|55=EGMFC001MM19|150=2|151=0.00|10=159|
2023/02/15 10:41:23.770696 8=FIX.4.4|9=227|35=D|34=9|347=UTF-8|52=20230215-10:41:23|49=EGIDS|50=01001a|56=CASE|44=100|11=151|1=10100400|21=1|386=1|336=NOPL|55=EGMFC001MM19|54=1|60=20230215-10:41:23|38=1000|40=2|59=1|453=1|448=4501|447=D|452=28|354=6|355=Public|110=1000|10=216|
2023/02/15 10:41:23.774186 8=FIX.4.4|9=173|35=8|34=9|49=CASE|52=20230215-10:41:23.774|56=EGIDS|1=10100400|6=100.00|11=151|14=1000.00|17=8|31=100.00|32=1000.00|37=8|38=1000.00|39=2|54=1|55=EGMFC001MM19|150=2|151=0.00|10=161|
2023/02/15 10:41:24.082786 8=FIX.4.4|9=228|35=D|34=10|347=UTF-8|52=20230215-10:41:24|49=EGIDS|50=01001a|56=CASE|44=100|11=152|1=10100400|21=1|386=1|336=NOPL|55=EGMFC001MM19|54=1|60=20230215-10:41:24|38=1000|40=2|59=1|453=1|448=4501|447=D|452=28|354=6|355=Public|110=1000|10=004|
2023/02/15 10:41:24.084201 8=FIX.4.4|9=174|35=8|34=10|49=CASE|52=20230215-10:41:24.084|56=EGIDS|1=10100400|6=100.00|11=152|14=1000.00|17=9|31=100.00|32=1000.00|37=9|38=1000.00|39=2|54=1|55=EGMFC001MM19|150=2|151=0.00|10=200|
2023/02/15 10:41:24.540243 8=FIX.4.4|9=228|35=D|34=11|347=UTF-8|52=20230215-10:41:24|49=EGIDS|50=01001a|56=CASE|44=100|11=153|1=10100400|21=1|386=1|336=NOPL|55=EGMFC001MM19|54=1|60=20230215-10:41:24|38=1000|40=2|59=1|453=1|448=4501|447=D|452=28|354=6|355=Public|110=1000|10=006|
2023/02/15 10:41:24.541696 8=FIX.4.4|9=176|35=8|34=11|49=CASE|52=20230215-10:41:24.541|56=EGIDS|1=10100400|6=100.00|11=153|14=1000.00|17=10|31=100.00|32=1000.00|37=10|38=1000.00|39=2|54=1|55=EGMFC001MM19|150=2|151=0.00|10=026|
2023/02/15 10:41:36.027807 8=FIX.4.4|9=228|35=D|34=12|347=UTF-8|52=20230215-10:41:36|49=EGIDS|50=01001a|56=CASE|44=100|11=154|1=10100400|21=1|386=1|336=NOPL|55=EGMFC001MM19|54=1|60=20230215-10:41:36|38=1000|40=2|59=0|453=1|448=4501|447=D|452=28|354=6|355=Public|110=1000|10=013|
2023/02/15 10:41:36.029158 8=FIX.4.4|9=176|35=8|34=12|49=CASE|52=20230215-10:41:36.029|56=EGIDS|1=10100400|6=100.00|11=154|14=1000.00|17=11|31=100.00|32=1000.00|37=11|38=1000.00|39=2|54=1|55=EGMFC001MM19|150=2|151=0.00|10=034|
2023/02/15 10:41:36.546728 8=FIX.4.4|9=228|35=D|34=13|347=UTF-8|52=20230215-10:41:36|49=EGIDS|50=01001a|56=CASE|44=100|11=155|1=10100400|21=1|386=1|336=NOPL|55=EGMFC001MM19|54=1|60=20230215-10:41:36|38=1000|40=2|59=0|453=1|448=4501|447=D|452=28|354=6|355=Public|110=1000|10=015|
2023/02/15 10:41:36.548306 8=FIX.4.4|9=176|35=8|34=13|49=CASE|52=20230215-10:41:36.548|56=EGIDS|1=10100400|6=100.00|11=155|14=1000.00|17=12|31=100.00|32=1000.00|37=12|38=1000.00|39=2|54=1|55=EGMFC001MM19|150=2|151=0.00|10=044|
2023/02/15 10:41:36.996545 8=FIX.4.4|9=228|35=D|34=14|347=UTF-8|52=20230215-10:41:36|49=EGIDS|50=01001a|56=CASE|44=100|11=156|1=10100400|21=1|386=1|336=NOPL|55=EGMFC001MM19|54=1|60=20230215-10:41:36|38=1000|40=2|59=0|453=1|448=4501|447=D|452=28|354=6|355=Public|110=1000|10=017|
2023/02/15 10:41:36.997924 8=FIX.4.4|9=176|35=8|34=14|49=CASE|52=20230215-10:41:36.997|56=EGIDS|1=10100400|6=100.00|11=156|14=1000.00|17=13|31=100.00|32=1000.00|37=13|38=1000.00|39=2|54=1|55=EGMFC001MM19|150=2|151=0.00|10=056|
2023/02/15 10:41:40.362616 8=FIX.4.4|9=228|35=D|34=15|347=UTF-8|52=20230215-10:41:40|49=EGIDS|50=01001a|56=CASE|44=100|11=157|1=10100400|21=1|386=1|336=NOPL|55=EGMFC001MM19|54=1|60=20230215-10:41:40|38=1000|40=2|59=1|453=1|448=4501|447=D|452=28|354=6|355=Public|110=1000|10=010|
2023/02/15 10:41:40.364324 8=FIX.4.4|9=176|35=8|34=15|49=CASE|52=20230215-10:41:40.364|56=EGIDS|1=10100400|6=100.00|11=157|14=1000.00|17=14|31=100.00|32=1000.00|37=14|38=1000.00|39=2|54=1|55=EGMFC001MM19|150=2|151=0.00|10=043|
2023/02/15 10:41:41.214682 8=FIX.4.4|9=228|35=D|34=16|347=UTF-8|52=20230215-10:41:41|49=EGIDS|50=01001a|56=CASE|44=100|11=158|1=10100400|21=1|386=1|336=NOPL|55=EGMFC001MM19|54=1|60=20230215-10:41:41|38=1000|40=2|59=1|453=1|448=4501|447=D|452=28|354=6|355=Public|110=1000|10=014|
2023/02/15 10:41:41.216252 8=FIX.4.4|9=176|35=8|34=16|49=CASE|52=20230215-10:41:41.216|56=EGIDS|1=10100400|6=100.00|11=158|14=1000.00|17=15|31=100.00|32=1000.00|37=15|38=1000.00|39=2|54=1|55=EGMFC001MM19|150=2|151=0.00|10=044|
2023/02/15 10:41:41.659217 8=FIX.4.4|9=228|35=D|34=17|347=UTF-8|52=20230215-10:41:41|49=EGIDS|50=01001a|56=CASE|44=100|11=159|1=10100400|21=1|386=1|336=NOPL|55=EGMFC001MM19|54=1|60=20230215-10:41:41|38=1000|40=2|59=1|453=1|448=4501|447=D|452=28|354=6|355=Public|110=1000|10=016|
2023/02/15 10:41:41.660760 8=FIX.4.4|9=176|35=8|34=17|49=CASE|52=20230215-10:41:41.660|56=EGIDS|1=10100400|6=100.00|11=159|14=1000.00|17=16|31=100.00|32=1000.00|37=16|38=1000.00|39=2|54=1|55=EGMFC001MM19|150=2|151=0.00|10=051|
2023/02/15 11:12:31.325438 8=FIX.4.4|9=67|35=A|34=1|49=EGIDS|56=CASE|52=20230215-11:12:31|98=0|108=120|141=Y|10=018|
2023/02/15 11:12:31.326097 8=FIX.4.4|9=71|35=A|34=1|49=CASE|52=20230215-11:12:31.326|56=EGIDS|98=0|108=120|141=Y|10=214|
2023/02/15 11:12:34.826828 8=FIX.4.4|9=218|35=D|34=2|347=UTF-8|52=20230215-11:12:34|49=EGIDS|50=01001a|56=CASE|44=100|11=174|1=10100400|21=1|386=1|336=NOPL|55=EGMFC001MM19|54=1|60=20230215-11:12:34|38=1000|40=2|59=0|453=1|448=4501|447=D|452=28|354=6|355=Public|10=070|
2023/02/15 11:12:34.834778 8=FIX.4.4|9=173|35=8|34=2|49=CASE|52=20230215-11:12:34.834|56=EGIDS|1=10100400|6=100.00|11=174|14=1000.00|17=1|31=100.00|32=1000.00|37=1|38=1000.00|39=2|54=1|55=EGMFC001MM19|150=2|151=0.00|10=143|
2023/02/15 11:12:36.413235 8=FIX.4.4|9=218|35=D|34=3|347=UTF-8|52=20230215-11:12:36|49=EGIDS|50=01001a|56=CASE|44=100|11=175|1=10100400|21=1|386=1|336=NOPL|55=EGMFC001MM19|54=1|60=20230215-11:12:36|38=1000|40=2|59=0|453=1|448=4501|447=D|452=28|354=6|355=Public|10=076|
2023/02/15 11:12:36.420486 8=FIX.4.4|9=173|35=8|34=3|49=CASE|52=20230215-11:12:36.420|56=EGIDS|1=10100400|6=100.00|11=175|14=1000.00|17=2|31=100.00|32=1000.00|37=2|38=1000.00|39=2|54=1|55=EGMFC001MM19|150=2|151=0.00|10=140|
2023/02/15 11:13:07.075572 8=FIX.4.4|9=218|35=D|34=4|347=UTF-8|52=20230215-11:13:07|49=EGIDS|50=01001a|56=CASE|44=100|11=176|1=10100400|21=1|386=1|336=NOPL|55=EGMFC001MM19|54=1|60=20230215-11:13:07|38=1000|40=2|59=0|453=1|448=4501|447=D|452=28|354=6|355=Public|10=076|
2023/02/15 11:13:07.080105 8=FIX.4.4|9=173|35=8|34=4|49=CASE|52=20230215-11:13:07.080|56=EGIDS|1=10100400|6=100.00|11=176|14=1000.00|17=3|31=100.00|32=1000.00|37=3|38=1000.00|39=2|54=1|55=EGMFC001MM19|150=2|151=0.00|10=145|
2023/02/15 11:15:07.081129 8=FIX.4.4|9=52|35=0|34=5|49=CASE|52=20230215-11:15:07.081|56=EGIDS|10=086|
2023/02/15 11:15:28.099275 8=FIX.4.4|9=218|35=D|34=5|347=UTF-8|52=20230215-11:15:28|49=EGIDS|50=01001a|56=CASE|44=100|11=177|1=10100400|21=1|386=1|336=NOPL|55=EGMFC001MM19|54=1|60=20230215-11:15:28|38=1000|40=2|59=0|453=1|448=4501|447=D|452=28|354=6|355=Public|10=088|
2023/02/15 11:15:28.112015 8=FIX.4.4|9=173|35=8|34=6|49=CASE|52=20230215-11:15:28.111|56=EGIDS|1=10100400|6=100.00|11=177|14=1000.00|17=4|31=100.00|32=1000.00|37=4|38=1000.00|39=2|54=1|55=EGMFC001MM19|150=2|151=0.00|10=150|
2023/02/15 11:15:30.558901 8=FIX.4.4|9=67|35=A|34=1|49=EGIDS|56=CASE|52=20230215-11:15:30|98=0|108=120|141=Y|10=020|
2023/02/15 11:15:30.559396 8=FIX.4.4|9=71|35=A|34=1|49=CASE|52=20230215-11:15:30.559|56=EGIDS|98=0|108=120|141=Y|10=224|
2023/02/15 11:15:30.560671 8=FIX.4.4|9=218|35=D|34=2|347=UTF-8|52=20230215-11:15:30|49=EGIDS|50=01001a|56=CASE|44=100|11=178|1=10100400|21=1|386=1|336=NOPL|55=EGMFC001MM19|54=1|60=20230215-11:15:30|38=1000|40=2|59=0|453=1|448=4501|447=D|452=28|354=6|355=Public|10=072|
2023/02/15 11:15:30.567552 8=FIX.4.4|9=173|35=8|34=2|49=CASE|52=20230215-11:15:30.567|56=EGIDS|1=10100400|6=100.00|11=178|14=1000.00|17=5|31=100.00|32=1000.00|37=5|38=1000.00|39=2|54=1|55=EGMFC001MM19|150=2|151=0.00|10=157|
2023/02/15 11:15:31.804841 8=FIX.4.4|9=218|35=D|34=3|347=UTF-8|52=20230215-11:15:31|49=EGIDS|50=01001a|56=CASE|44=100|11=179|1=10100400|21=1|386=1|336=NOPL|55=EGMFC001MM19|54=1|60=20230215-11:15:31|38=1000|40=2|59=0|453=1|448=4501|447=D|452=28|354=6|355=Public|10=076|
2023/02/15 11:15:31.809861 8=FIX.4.4|9=173|35=8|34=3|49=CASE|52=20230215-11:15:31.809|56=EGIDS|1=10100400|6=100.00|11=179|14=1000.00|17=6|31=100.00|32=1000.00|37=6|38=1000.00|39=2|54=1|55=EGMFC001MM19|150=2|151=0.00|10=161|
2023/02/15 11:15:32.082913 8=FIX.4.4|9=218|35=D|34=4|347=UTF-8|52=20230215-11:15:32|49=EGIDS|50=01001a|56=CASE|44=100|11=180|1=10100400|21=1|386=1|336=NOPL|55=EGMFC001MM19|54=1|60=20230215-11:15:32|38=1000|40=2|59=0|453=1|448=4501|447=D|452=28|354=6|355=Public|10=071|
2023/02/15 11:15:32.084994 8=FIX.4.4|9=173|35=8|34=4|49=CASE|52=20230215-11:15:32.084|56=EGIDS|1=10100400|6=100.00|11=180|14=1000.00|17=7|31=100.00|32=1000.00|37=7|38=1000.00|39=2|54=1|55=EGMFC001MM19|150=2|151=0.00|10=152|
2023/02/15 11:15:32.316352 8=FIX.4.4|9=218|35=D|34=5|347=UTF-8|52=20230215-11:15:32|49=EGIDS|50=01001a|56=CASE|44=100|11=181|1=10100400|21=1|386=1|336=NOPL|55=EGMFC001MM19|54=1|60=20230215-11:15:32|38=1000|40=2|59=0|453=1|448=4501|447=D|452=28|354=6|355=Public|10=073|
2023/02/15 11:15:32.319452 8=FIX.4.4|9=173|35=8|34=5|49=CASE|52=20230215-11:15:32.319|56=EGIDS|1=10100400|6=100.00|11=181|14=1000.00|17=8|31=100.00|32=1000.00|37=8|38=1000.00|39=2|54=1|55=EGMFC001MM19|150=2|151=0.00|10=157|
2023/02/15 11:15:34.405538 8=FIX.4.4|9=218|35=D|34=6|347=UTF-8|52=20230215-11:15:34|49=EGIDS|50=01001a|56=CASE|44=100|11=182|1=10100400|21=1|386=1|336=NOPL|55=EGMFC001MM19|54=1|60=20230215-11:15:34|38=1000|40=2|59=0|453=1|448=4501|447=D|452=28|354=6|355=Public|10=079|
2023/02/15 11:15:34.411750 8=FIX.4.4|9=173|35=8|34=6|49=CASE|52=20230215-11:15:34.411|56=EGIDS|1=10100400|6=100.00|11=182|14=1000.00|17=9|31=100.00|32=1000.00|37=9|38=1000.00|39=2|54=1|55=EGMFC001MM19|150=2|151=0.00|10=156|
2023/02/15 11:15:34.669168 8=FIX.4.4|9=218|35=D|34=7|347=UTF-8|52=20230215-11:15:34|49=EGIDS|50=01001a|56=CASE|44=100|11=183|1=10100400|21=1|386=1|336=NOPL|55=EGMFC001MM19|54=1|60=20230215-11:15:34|38=1000|40=2|59=0|453=1|448=4501|447=D|452=28|354=6|355=Public|10=081|
2023/02/15 11:15:34.672555 8=FIX.4.4|9=175|35=8|34=7|49=CASE|52=20230215-11:15:34.672|56=EGIDS|1=10100400|6=100.00|11=183|14=1000.00|17=10|31=100.00|32=1000.00|37=10|38=1000.00|39=2|54=1|55=EGMFC001MM19|150=2|151=0.00|10=249|
2023/02/15 11:15:34.963182 8=FIX.4.4|9=218|35=D|34=8|347=UTF-8|52=20230215-11:15:34|49=EGIDS|50=01001a|56=CASE|44=100|11=184|1=10100400|21=1|386=1|336=NOPL|55=EGMFC001MM19|54=1|60=20230215-11:15:34|38=1000|40=2|59=0|453=1|448=4501|447=D|452=28|354=6|355=Public|10=083|
2023/02/15 11:15:34.965402 8=FIX.4.4|9=175|35=8|34=8|49=CASE|52=20230215-11:15:34.965|56=EGIDS|1=10100400|6=100.00|11=184|14=1000.00|17=11|31=100.00|32=1000.00|37=11|38=1000.00|39=2|54=1|55=EGMFC001MM19|150=2|151=0.00|10=002|
2023/02/15 11:15:48.522961 8=FIX.4.4|9=52|35=5|34=9|49=CASE|52=20230215-11:15:48.522|56=EGIDS|10=100|
2023/02/15 11:16:09.168161 8=FIX.4.4|9=67|35=A|34=1|49=EGIDS|56=CASE|52=20230215-11:16:09|98=0|108=120|141=Y|10=027|
2023/02/15 11:16:09.168669 8=FIX.4.4|9=71|35=A|34=1|49=CASE|52=20230215-11:16:09.168|56=EGIDS|98=0|108=120|141=Y|10=227|
2023/02/15 11:16:09.176294 8=FIX.4.4|9=218|35=D|34=2|347=UTF-8|52=20230215-11:16:09|49=EGIDS|50=01001a|56=CASE|44=100|11=186|1=10100400|21=1|386=1|336=NOPL|55=EGMFC001MM19|54=1|60=20230215-11:16:09|38=1000|40=2|59=0|453=1|448=4501|447=D|452=28|354=6|355=Public|10=085|
2023/02/15 11:18:32.457283 8=FIX.4.4|9=218|35=D|34=3|347=UTF-8|52=20230215-11:16:09|49=EGIDS|50=01001a|56=CASE|44=100|11=187|1=10100400|21=1|386=1|336=NOPL|55=EGMFC001MM19|54=1|60=20230215-11:16:09|38=1000|40=2|59=0|453=1|448=4501|447=D|452=28|354=6|355=Public|10=087|
2023/02/15 11:18:33.969598 8=FIX.4.4|9=173|35=8|34=2|49=CASE|52=20230215-11:18:32.457|56=EGIDS|1=10100400|6=100.00|11=186|14=1000.00|17=1|31=100.00|32=1000.00|37=1|38=1000.00|39=2|54=1|55=EGMFC001MM19|150=2|151=0.00|10=151|
2023/02/15 11:18:33.969629 8=FIX.4.4|9=173|35=8|34=3|49=CASE|52=20230215-11:18:33.969|56=EGIDS|1=10100400|6=100.00|11=187|14=1000.00|17=2|31=100.00|32=1000.00|37=2|38=1000.00|39=2|54=1|55=EGMFC001MM19|150=2|151=0.00|10=164|
2023/02/15 11:18:33.969696 8=FIX.4.4|9=52|35=0|34=4|49=CASE|52=20230215-11:18:33.969|56=EGIDS|10=102|
2023/02/15 11:18:33.969710 8=FIX.4.4|9=218|35=D|34=4|347=UTF-8|52=20230215-11:16:09|49=EGIDS|50=01001a|56=CASE|44=100|11=188|1=10100400|21=1|386=1|336=NOPL|55=EGMFC001MM19|54=1|60=20230215-11:16:09|38=1000|40=2|59=0|453=1|448=4501|447=D|452=28|354=6|355=Public|10=089|
2023/02/15 11:18:34.921477 8=FIX.4.4|9=173|35=8|34=5|49=CASE|52=20230215-11:18:34.921|56=EGIDS|1=10100400|6=100.00|11=188|14=1000.00|17=3|31=100.00|32=1000.00|37=3|38=1000.00|39=2|54=1|55=EGMFC001MM19|150=2|151=0.00|10=158|
2023/02/15 11:18:34.921549 8=FIX.4.4|9=218|35=D|34=5|347=UTF-8|52=20230215-11:16:09|49=EGIDS|50=01001a|56=CASE|44=100|11=189|1=10100400|21=1|386=1|336=NOPL|55=EGMFC001MM19|54=1|60=20230215-11:16:09|38=1000|40=2|59=0|453=1|448=4501|447=D|452=28|354=6|355=Public|10=091|
2023/02/15 11:18:35.947239 8=FIX.4.4|9=218|35=D|34=6|347=UTF-8|52=20230215-11:16:10|49=EGIDS|50=01001a|56=CASE|44=100|11=190|1=10100400|21=1|386=1|336=NOPL|55=EGMFC001MM19|54=1|60=20230215-11:16:10|38=1000|40=2|59=0|453=1|448=4501|447=D|452=28|354=6|355=Public|10=068|
2023/02/15 11:21:29.463315 8=FIX.4.4|9=67|35=A|34=1|49=EGIDS|56=CASE|52=20230215-11:21:29|98=0|108=120|141=Y|10=025|
2023/02/15 11:21:29.463870 8=FIX.4.4|9=71|35=A|34=1|49=CASE|52=20230215-11:21:29.463|56=EGIDS|98=0|108=120|141=Y|10=223|
2023/02/15 11:21:29.465283 8=FIX.4.4|9=218|35=D|34=2|347=UTF-8|52=20230215-11:21:29|49=EGIDS|50=01001a|56=CASE|44=100|11=192|1=10100400|21=1|386=1|336=NOPL|55=EGMFC001MM19|54=1|60=20230215-11:21:29|38=1000|40=2|59=0|453=1|448=4501|447=D|452=28|354=6|355=Public|10=078|
2023/02/15 11:21:36.529636 8=FIX.4.4|9=218|35=D|34=3|347=UTF-8|52=20230215-11:21:32|49=EGIDS|50=01001a|56=CASE|44=100|11=193|1=10100400|21=1|386=1|336=NOPL|55=EGMFC001MM19|54=1|60=20230215-11:21:32|38=1000|40=2|59=0|453=1|448=4501|447=D|452=28|354=6|355=Public|10=068|
2023/02/15 11:22:00.121925 8=FIX.4.4|9=218|35=D|34=4|347=UTF-8|52=20230215-11:21:32|49=EGIDS|50=01001a|56=CASE|44=100|11=194|1=10100400|21=1|386=1|336=NOPL|55=EGMFC001MM19|54=1|60=20230215-11:21:32|38=1000|40=2|59=0|453=1|448=4501|447=D|452=28|354=6|355=Public|10=070|
2023/02/15 11:22:01.345924 8=FIX.4.4|9=218|35=D|34=5|347=UTF-8|52=20230215-11:21:33|49=EGIDS|50=01001a|56=CASE|44=100|11=195|1=10100400|21=1|386=1|336=NOPL|55=EGMFC001MM19|54=1|60=20230215-11:21:33|38=1000|40=2|59=0|453=1|448=4501|447=D|452=28|354=6|355=Public|10=074|
2023/02/15 11:22:13.831231 8=FIX.4.4|9=67|35=A|34=1|49=EGIDS|56=CASE|52=20230215-11:22:13|98=0|108=120|141=Y|10=019|
2023/02/15 11:22:13.831680 8=FIX.4.4|9=71|35=A|34=1|49=CASE|52=20230215-11:22:13.831|56=EGIDS|98=0|108=120|141=Y|10=216|
2023/02/15 11:22:13.833955 8=FIX.4.4|9=218|35=D|34=2|347=UTF-8|52=20230215-11:22:13|49=EGIDS|50=01001a|56=CASE|44=100|11=196|1=10100400|21=1|386=1|336=NOPL|55=EGMFC001MM19|54=1|60=20230215-11:22:13|38=1000|40=2|59=0|453=1|448=4501|447=D|452=28|354=6|355=Public|10=070|
2023/02/15 11:22:17.953988 8=FIX.4.4|9=173|35=8|34=2|49=CASE|52=20230215-11:22:17.953|56=EGIDS|1=10100400|6=100.00|11=196|14=1000.00|17=1|31=100.00|32=1000.00|37=1|38=1000.00|39=2|54=1|55=EGMFC001MM19|150=2|151=0.00|10=151|
2023/02/15 11:22:17.954024 8=FIX.4.4|9=218|35=D|34=3|347=UTF-8|52=20230215-11:22:14|49=EGIDS|50=01001a|56=CASE|44=100|11=197|1=10100400|21=1|386=1|336=NOPL|55=EGMFC001MM19|54=1|60=20230215-11:22:14|38=1000|40=2|59=0|453=1|448=4501|447=D|452=28|354=6|355=Public|10=074|
2023/02/15 11:22:20.149628 8=FIX.4.4|9=218|35=D|34=4|347=UTF-8|52=20230215-11:22:15|49=EGIDS|50=01001a|56=CASE|44=100|11=198|1=10100400|21=1|386=1|336=NOPL|55=EGMFC001MM19|54=1|60=20230215-11:22:15|38=1000|40=2|59=0|453=1|448=4501|447=D|452=28|354=6|355=Public|10=078|
2023/02/15 11:22:21.137996 8=FIX.4.4|9=218|35=D|34=5|347=UTF-8|52=20230215-11:22:15|49=EGIDS|50=01001a|56=CASE|44=100|11=199|1=10100400|21=1|386=1|336=NOPL|55=EGMFC001MM19|54=1|60=20230215-11:22:15|38=1000|40=2|59=0|453=1|448=4501|447=D|452=28|354=6|355=Public|10=080|
2023/02/15 11:22:22.537871 8=FIX.4.4|9=173|35=8|34=3|49=CASE|52=20230215-11:22:20.149|56=EGIDS|1=10100400|6=100.00|11=197|14=1000.00|17=2|31=100.00|32=1000.00|37=2|38=1000.00|39=2|54=1|55=EGMFC001MM19|150=2|151=0.00|10=146|
2023/02/15 11:22:22.537905 8=FIX.4.4|9=173|35=8|34=4|49=CASE|52=20230215-11:22:21.137|56=EGIDS|1=10100400|6=100.00|11=198|14=1000.00|17=3|31=100.00|32=1000.00|37=3|38=1000.00|39=2|54=1|55=EGMFC001MM19|150=2|151=0.00|10=148|
2023/02/15 11:22:22.537940 8=FIX.4.4|9=173|35=8|34=5|49=CASE|52=20230215-11:22:22.537|56=EGIDS|1=10100400|6=100.00|11=199|14=1000.00|17=4|31=100.00|32=1000.00|37=4|38=1000.00|39=2|54=1|55=EGMFC001MM19|150=2|151=0.00|10=157|
2023/09/12 16:24:03.657160 8=FIX.4.4|9=67|35=A|34=1|49=EGIDS|56=CASE|52=20230912-16:24:03|98=0|108=120|141=Y|10=029|
2023/09/12 16:24:03.657801 8=FIX.4.4|9=71|35=A|34=1|49=CASE|52=20230912-16:24:03.657|56=EGIDS|98=0|108=120|141=Y|10=232|
2023/09/12 16:24:03.658977 8=FIX.4.4|9=205|35=D|34=2|347=UTF-8|52=20230912-16:24:03|49=EGIDS|50=1001|56=CASE|44=10|11=653|1=10100400|21=1|386=1|336=NOPL|55=IBM|54=1|60=20230912-16:24:03|38=100|40=2|59=0|453=1|448=4501|447=D|452=28|354=6|355=Public|10=068|
2023/09/12 16:24:09.069589 8=FIX.4.4|9=159|35=8|34=2|49=CASE|52=20230912-16:24:09.069|56=EGIDS|1=10100400|6=10.00|11=653|14=100.00|17=1|31=10.00|32=100.00|37=1|38=100.00|39=2|54=1|55=IBM|150=2|151=0.00|10=148|
2023/09/12 16:24:19.414205 8=FIX.4.4|9=205|35=D|34=3|347=UTF-8|52=20230912-16:24:19|49=EGIDS|50=1001|56=CASE|44=10|11=654|1=10100400|21=1|386=1|336=NOPL|55=IBM|54=1|60=20230912-16:24:19|38=100|40=2|59=0|453=1|448=4501|447=D|452=28|354=6|355=Public|10=084|
2023/09/12 16:24:26.795214 8=FIX.4.4|9=159|35=8|34=3|49=CASE|52=20230912-16:24:26.795|56=EGIDS|1=10100400|6=10.00|11=654|14=100.00|17=2|31=10.00|32=100.00|37=2|38=100.00|39=2|54=1|55=IBM|150=2|151=0.00|10=157|
2023/09/12 16:24:39.263109 8=FIX.4.4|9=67|35=A|34=1|49=EGIDS|56=CASE|52=20230912-16:24:39|98=0|108=120|141=Y|10=038|
2023/09/12 16:24:39.263375 8=FIX.4.4|9=71|35=A|34=1|49=CASE|52=20230912-16:24:39.263|56=EGIDS|98=0|108=120|141=Y|10=234|
2023/09/12 16:24:39.264176 8=FIX.4.4|9=205|35=D|34=2|347=UTF-8|52=20230912-16:24:39|49=EGIDS|50=1001|56=CASE|44=10|11=655|1=10100400|21=1|386=1|336=NOPL|55=IBM|54=1|60=20230912-16:24:39|38=100|40=2|59=0|453=1|448=4501|447=D|452=28|354=6|355=Public|10=088|
2023/09/12 16:24:39.269979 8=FIX.4.4|9=159|35=8|34=2|49=CASE|52=20230912-16:24:39.269|56=EGIDS|1=10100400|6=10.00|11=655|14=100.00|17=3|31=10.00|32=100.00|37=3|38=100.00|39=2|54=1|55=IBM|150=2|151=0.00|10=159|
2023/09/12 16:26:39.270820 8=FIX.4.4|9=52|35=0|34=3|49=CASE|52=20230912-16:26:39.270|56=EGIDS|10=100|
2023/09/12 16:27:03.270427 8=FIX.4.4|9=61|35=1|34=4|49=CASE|52=20230912-16:27:03.270|56=EGIDS|112=TEST|10=112|
2023/09/12 16:27:03.326764 8=FIX.4.4|9=57|35=0|49=EGIDS|34=3|56=CASE|52=20230912-16:27:03|112=TEST|10=172|
2023/09/12 16:29:02.733698 8=FIX.4.4|9=67|35=A|34=1|49=EGIDS|56=CASE|52=20230912-16:29:02|98=0|108=120|141=Y|10=033|
2023/09/12 16:29:02.733851 8=FIX.4.4|9=71|35=A|34=1|49=CASE|52=20230912-16:29:02.733|56=EGIDS|98=0|108=120|141=Y|10=231|
2023/09/12 16:29:02.734446 8=FIX.4.4|9=205|35=D|34=2|347=UTF-8|52=20230912-16:29:02|49=EGIDS|50=1001|56=CASE|44=10|11=656|1=10100400|21=1|386=1|336=NOPL|55=IBM|54=1|60=20230912-16:29:02|38=100|40=2|59=0|453=1|448=4501|447=D|452=28|354=6|355=Public|10=079|
2023/09/12 16:29:02.737466 8=FIX.4.4|9=159|35=8|34=2|49=CASE|52=20230912-16:29:02.737|56=EGIDS|1=10100400|6=10.00|11=656|14=100.00|17=1|31=10.00|32=100.00|37=1|38=100.00|39=2|54=1|55=IBM|150=2|151=0.00|10=151|
2023/09/12 16:29:03.461224 8=FIX.4.4|9=205|35=D|34=3|347=UTF-8|52=20230912-16:29:03|49=EGIDS|50=1001|56=CASE|44=10|11=657|1=10100400|21=1|386=1|336=NOPL|55=IBM|54=1|60=20230912-16:29:03|38=100|40=2|59=0|453=1|448=4501|447=D|452=28|354=6|355=Public|10=083|
2023/09/12 16:29:03.465308 8=FIX.4.4|9=159|35=8|34=3|49=CASE|52=20230912-16:29:03.465|56=EGIDS|1=10100400|6=10.00|11=657|14=100.00|17=2|31=10.00|32=100.00|37=2|38=100.00|39=2|54=1|55=IBM|150=2|151=0.00|10=154|
2023/09/12 16:29:03.862121 8=FIX.4.4|9=205|35=D|34=4|347=UTF-8|52=20230912-16:29:03|49=EGIDS|50=1001|56=CASE|44=10|11=658|1=10100400|21=1|386=1|336=NOPL|55=IBM|54=1|60=20230912-16:29:03|38=100|40=2|59=0|453=1|448=4501|447=D|452=28|354=6|355=Public|10=085|
2023/09/12 16:29:03.869758 8=FIX.4.4|9=159|35=8|34=4|49=CASE|52=20230912-16:29:03.869|56=EGIDS|1=10100400|6=10.00|11=658|14=100.00|17=3|31=10.00|32=100.00|37=3|38=100.00|39=2|54=1|55=IBM|150=2|151=0.00|10=166|
2023/09/12 16:29:04.116730 8=FIX.4.4|9=205|35=D|34=5|347=UTF-8|52=20230912-16:29:04|49=EGIDS|50=1001|56=CASE|44=10|11=659|1=10100400|21=1|386=1|336=NOPL|55=IBM|54=1|60=20230912-16:29:04|38=100|40=2|59=0|453=1|448=4501|447=D|452=28|354=6|355=Public|10=089|
2023/09/12 16:29:04.119033 8=FIX.4.4|9=159|35=8|34=5|49=CASE|52=20230912-16:29:04.118|56=EGIDS|1=10100400|6=10.00|11=659|14=100.00|17=4|31=10.00|32=100.00|37=4|38=100.00|39=2|54=1|55=IBM|150=2|151=0.00|10=158|
2023/09/12 16:32:12.245612 8=FIX.4.4|9=67|35=A|34=1|49=EGIDS|56=CASE|52=20230912-16:32:12|98=0|108=120|141=Y|10=028|
2023/09/12 16:32:12.245790 8=FIX.4.4|9=71|35=A|34=1|49=CASE|52=20230912-16:32:12.245|56=EGIDS|98=0|108=120|141=Y|10=224|
2023/09/12 16:32:14.292839 8=FIX.4.4|9=205|35=D|34=2|347=UTF-8|52=20230912-16:32:14|49=EGIDS|50=1001|56=CASE|44=10|11=661|1=10100400|21=1|386=1|336=NOPL|55=IBM|54=1|60=20230912-16:32:14|38=100|40=2|59=0|453=1|448=4501|447=D|452=28|354=6|355=Public|10=069|
2023/09/12 16:32:14.295274 8=FIX.4.4|9=159|35=8|34=2|49=CASE|52=20230912-16:32:14.295|56=EGIDS|1=10100400|6=10.00|11=661|14=100.00|17=1|31=10.00|32=100.00|37=1|38=100.00|39=A|54=1|55=IBM|150=A|151=0.00|10=173|
2023/09/12 16:32:14.853016 8=FIX.4.4|9=205|35=D|34=3|347=UTF-8|52=20230912-16:32:14|49=EGIDS|50=1001|56=CASE|44=10|11=662|1=10100400|21=1|386=1|336=NOPL|55=IBM|54=1|60=20230912-16:32:14|38=100|40=2|59=0|453=1|448=4501|447=D|452=28|354=6|355=Public|10=071|
2023/09/12 16:32:14.855870 8=FIX.4.4|9=159|35=8|34=3|49=CASE|52=20230912-16:32:14.855|56=EGIDS|1=10100400|6=10.00|11=662|14=100.00|17=2|31=10.00|32=100.00|37=2|38=100.00|39=A|54=1|55=IBM|150=A|151=0.00|10=179|
2023/09/12 16:32:15.108882 8=FIX.4.4|9=205|35=D|34=4|347=UTF-8|52=20230912-16:32:15|49=EGIDS|50=1001|56=CASE|44=10|11=663|1=10100400|21=1|386=1|336=NOPL|55=IBM|54=1|60=20230912-16:32:15|38=100|40=2|59=0|453=1|448=4501|447=D|452=28|354=6|355=Public|10=075|
2023/09/12 16:32:15.111367 8=FIX.4.4|9=159|35=8|34=4|49=CASE|52=20230912-16:32:15.111|56=EGIDS|1=10100400|6=10.00|11=663|14=100.00|17=3|31=10.00|32=100.00|37=3|38=100.00|39=A|54=1|55=IBM|150=A|151=0.00|10=169|
2023/09/12 16:32:15.324725 8=FIX.4.4|9=205|35=D|34=5|347=UTF-8|52=20230912-16:32:15|49=EGIDS|50=1001|56=CASE|44=10|11=664|1=10100400|21=1|386=1|336=NOPL|55=IBM|54=1|60=20230912-16:32:15|38=100|40=2|59=0|453=1|448=4501|447=D|452=28|354=6|355=Public|10=077|
2023/09/12 16:32:15.326959 8=FIX.4.4|9=159|35=8|34=5|49=CASE|52=20230912-16:32:15.326|56=EGIDS|1=10100400|6=10.00|11=664|14=100.00|17=4|31=10.00|32=100.00|37=4|38=100.00|39=A|54=1|55=IBM|150=A|151=0.00|10=181|
2023/09/12 16:32:15.542154 8=FIX.4.4|9=205|35=D|34=6|347=UTF-8|52=20230912-16:32:15|49=EGIDS|50=1001|56=CASE|44=10|11=665|1=10100400|21=1|386=1|336=NOPL|55=IBM|54=1|60=20230912-16:32:15|38=100|40=2|59=0|453=1|448=4501|447=D|452=28|354=6|355=Public|10=079|
2023/09/12 16:32:15.546226 8=FIX.4.4|9=159|35=8|34=6|49=CASE|52=20230912-16:32:15.546|56=EGIDS|1=10100400|6=10.00|11=665|14=100.00|17=5|31=10.00|32=100.00|37=5|38=100.00|39=A|54=1|55=IBM|150=A|151=0.00|10=189|
2023/09/12 16:32:19.589399 8=FIX.4.4|9=123|35=F|57=EGIDB|49=EGIDS|56=CASE|34=7|41=661|50=1001|52=20230912-16:32:19|11=666|1=10100400|55=IBM|60=20230912-16:32:19|54=1|10=040|
2023/09/12 16:32:19.589661 8=FIX.4.4|9=114|35=j|34=7|49=CASE|50=EGIDB|52=20230912-16:32:19.589|56=EGIDS|57=1001|45=7|58=Unsupported Message Type|372=F|380=3|10=072|
2023/09/12 16:32:21.759538 8=FIX.4.4|9=212|35=G|49=EGIDS|56=CASE|347=UTF-8|34=8|50=1001|52=20230912-16:32:21|38=100|11=667|1=10100400|21=1|386=1|336=NOPL|55=IBM|60=20230912-16:32:21|59=0|41=663|453=1|448=4501|447=D|452=28|54=1|44=10|40=2|354=6|355=Public|10=144|
2023/09/12 16:32:21.759986 8=FIX.4.4|9=105|35=j|34=8|49=CASE|52=20230912-16:32:21.759|56=EGIDS|57=1001|45=8|58=Unsupported Message Type|372=G|380=3|10=069|
2023/09/12 16:34:21.760711 8=FIX.4.4|9=52|35=0|34=9|49=CASE|52=20230912-16:34:21.760|56=EGIDS|10=100|
2023/09/12 16:34:45.760453 8=FIX.4.4|9=62|35=1|34=10|49=CASE|52=20230912-16:34:45.760|56=EGIDS|112=TEST|10=166|
2023/09/12 16:34:45.823383 8=FIX.4.4|9=57|35=0|49=EGIDS|34=9|56=CASE|52=20230912-16:34:45|112=TEST|10=182|
2023/09/12 16:36:45.761013 8=FIX.4.4|9=53|35=0|34=11|49=CASE|52=20230912-16:36:45.760|56=EGIDS|10=150|
2023/09/12 16:37:09.823662 8=FIX.4.4|9=62|35=1|34=12|49=CASE|52=20230912-16:37:09.823|56=EGIDS|112=TEST|10=171|
2023/09/12 16:37:09.858692 8=FIX.4.4|9=58|35=0|49=EGIDS|34=10|56=CASE|52=20230912-16:37:09|112=TEST|10=226|
2023/09/12 16:39:09.824791 8=FIX.4.4|9=53|35=0|34=13|49=CASE|52=20230912-16:39:09.824|56=EGIDS|10=156|
2023/09/12 16:39:33.858896 8=FIX.4.4|9=62|35=1|34=14|49=CASE|52=20230912-16:39:33.858|56=EGIDS|112=TEST|10=180|
2023/09/12 16:39:33.963645 8=FIX.4.4|9=58|35=0|49=EGIDS|34=11|56=CASE|52=20230912-16:39:33|112=TEST|10=226|
2023/09/12 17:14:27.974231 8=FIX.4.4|9=67|35=A|34=1|49=EGIDS|56=CASE|52=20230912-17:14:27|98=0|108=120|141=Y|10=035|
2023/09/12 17:14:27.974872 8=FIX.4.4|9=71|35=A|34=1|49=CASE|52=20230912-17:14:27.974|56=EGIDS|98=0|108=120|141=Y|10=240|
2023/09/12 17:14:27.984697 8=FIX.4.4|9=205|35=D|34=2|347=UTF-8|52=20230912-17:14:27|49=EGIDS|50=1001|56=CASE|44=10|11=668|1=10100400|21=1|386=1|336=NOPL|55=IBM|54=1|60=20230912-17:14:27|38=100|40=2|59=0|453=1|448=4501|447=D|452=28|354=6|355=Public|10=086|
2023/09/12 17:14:27.998138 8=FIX.4.4|9=159|35=8|34=2|49=CASE|52=20230912-17:14:27.998|56=EGIDS|1=10100400|6=10.00|11=668|14=100.00|17=1|31=10.00|32=100.00|37=1|38=100.00|39=A|54=1|55=IBM|150=A|151=0.00|10=195|
2023/09/12 17:14:33.519301 8=FIX.4.4|9=123|35=F|57=EGIDB|49=EGIDS|56=CASE|34=3|41=668|50=1001|52=20230912-17:14:33|11=669|1=10100400|55=IBM|60=20230912-17:14:33|54=1|10=040|
2023/09/12 17:14:33.519519 8=FIX.4.4|9=114|35=j|34=3|49=CASE|50=EGIDB|52=20230912-17:14:33.519|56=EGIDS|57=1001|45=3|58=Unsupported Message Type|372=F|380=3|10=054|
2023/09/12 17:14:37.328058 8=FIX.4.4|9=212|35=G|49=EGIDS|56=CASE|347=UTF-8|34=4|50=1001|52=20230912-17:14:37|38=100|11=670|1=10100400|21=1|386=1|336=NOPL|55=IBM|60=20230912-17:14:37|59=0|41=668|453=1|448=4501|447=D|452=28|54=1|44=10|40=2|354=6|355=Public|10=155|
2023/09/12 17:14:37.328325 8=FIX.4.4|9=105|35=j|34=4|49=CASE|52=20230912-17:14:37.328|56=EGIDS|57=1001|45=4|58=Unsupported Message Type|372=G|380=3|10=061|
2023/09/12 17:16:12.952298 8=FIX.4.4|9=67|35=A|34=1|49=EGIDS|56=CASE|52=20230912-17:16:12|98=0|108=120|141=Y|10=031|
2023/09/12 17:16:12.952431 8=FIX.4.4|9=71|35=A|34=1|49=CASE|52=20230912-17:16:12.952|56=EGIDS|98=0|108=120|141=Y|10=232|
2023/09/12 17:16:12.952960 8=FIX.4.4|9=205|35=D|34=2|347=UTF-8|52=20230912-17:16:12|49=EGIDS|50=1001|56=CASE|44=10|11=671|1=10100400|21=1|386=1|336=NOPL|55=IBM|54=1|60=20230912-17:16:12|38=100|40=2|59=0|453=1|448=4501|447=D|452=28|354=6|355=Public|10=072|
2023/09/12 17:16:19.726650 8=FIX.4.4|9=159|35=8|34=2|49=CASE|52=20230912-17:16:19.726|56=EGIDS|1=10100400|6=10.00|11=671|14=100.00|17=2|31=10.00|32=100.00|37=2|38=100.00|39=A|54=1|55=IBM|150=A|151=0.00|10=183|
2023/09/12 17:16:53.286927 8=FIX.4.4|9=123|35=F|57=EGIDB|49=EGIDS|56=CASE|34=3|41=671|50=1001|52=20230912-17:16:53|11=672|1=10100400|55=IBM|60=20230912-17:16:53|54=1|10=036|
2023/09/12 17:16:53.287393 8=FIX.4.4|9=114|35=j|34=3|49=CASE|50=EGIDB|52=20230912-17:16:53.287|56=EGIDS|57=1001|45=3|58=Unsupported Message Type|372=F|380=3|10=060|
2023/09/12 17:16:56.864781 8=FIX.4.4|9=212|35=G|49=EGIDS|56=CASE|347=UTF-8|34=4|50=1001|52=20230912-17:16:56|38=100|11=673|1=10100400|21=1|386=1|336=NOPL|55=IBM|60=20230912-17:16:56|59=0|41=671|453=1|448=4501|447=D|452=28|54=1|44=10|40=2|354=6|355=Public|10=158|
2023/09/12 17:16:56.865243 8=FIX.4.4|9=105|35=j|34=4|49=CASE|52=20230912-17:16:56.865|56=EGIDS|57=1001|45=4|58=Unsupported Message Type|372=G|380=3|10=070|
2023/09/12 17:18:27.894567 8=FIX.4.4|9=67|35=A|34=1|49=EGIDS|56=CASE|52=20230912-17:18:27|98=0|108=120|141=Y|10=039|
2023/09/12 17:18:27.894737 8=FIX.4.4|9=71|35=A|34=1|49=CASE|52=20230912-17:18:27.894|56=EGIDS|98=0|108=120|141=Y|10=245|
2023/09/12 17:18:27.895167 8=FIX.4.4|9=205|35=D|34=2|347=UTF-8|52=20230912-17:18:27|49=EGIDS|50=1001|56=CASE|44=10|11=674|1=10100400|21=1|386=1|336=NOPL|55=IBM|54=1|60=20230912-17:18:27|38=100|40=2|59=0|453=1|448=4501|447=D|452=28|354=6|355=Public|10=091|
2023/09/12 17:18:37.107473 8=FIX.4.4|9=159|35=8|34=2|49=CASE|52=20230912-17:18:37.107|56=EGIDS|1=10100400|6=10.00|11=674|14=100.00|17=1|31=10.00|32=100.00|37=1|38=100.00|39=A|54=1|55=IBM|150=A|151=0.00|10=179|
2023/09/12 17:18:40.464512 8=FIX.4.4|9=123|35=F|57=EGIDB|49=EGIDS|56=CASE|34=3|41=674|50=1001|52=20230912-17:18:40|11=675|1=10100400|55=IBM|60=20230912-17:18:40|54=1|10=038|
2023/09/12 17:19:46.414917 8=FIX.4.4|9=67|35=A|34=1|49=EGIDS|56=CASE|52=20230912-17:19:46|98=0|108=120|141=Y|10=041|
2023/09/12 17:19:46.415064 8=FIX.4.4|9=71|35=A|34=1|49=CASE|52=20230912-17:19:46.415|56=EGIDS|98=0|108=120|141=Y|10=236|
2023/09/12 17:19:46.415954 8=FIX.4.4|9=205|35=D|34=2|347=UTF-8|52=20230912-17:19:46|49=EGIDS|50=1001|56=CASE|44=10|11=676|1=10100400|21=1|386=1|336=NOPL|55=IBM|54=1|60=20230912-17:19:46|38=100|40=2|59=0|453=1|448=4501|447=D|452=28|354=6|355=Public|10=097|
2023/09/12 17:19:46.418401 8=FIX.4.4|9=159|35=8|34=2|49=CASE|52=20230912-17:19:46.418|56=EGIDS|1=10100400|6=10.00|11=676|14=100.00|17=1|31=10.00|32=100.00|37=1|38=100.00|39=A|54=1|55=IBM|150=A|151=0.00|10=187|
2023/09/12 17:19:49.718025 8=FIX.4.4|9=123|35=F|57=EGIDB|49=EGIDS|56=CASE|34=3|41=676|50=1001|52=20230912-17:19:49|11=677|1=10100400|55=IBM|60=20230912-17:19:49|54=1|10=062|
2023/09/12 17:20:51.830519 8=FIX.4.4|9=67|35=A|34=1|49=EGIDS|56=CASE|52=20230912-17:20:51|98=0|108=120|141=Y|10=029|
2023/09/12 17:20:51.830711 8=FIX.4.4|9=71|35=A|34=1|49=CASE|52=20230912-17:20:51.830|56=EGIDS|98=0|108=120|141=Y|10=225|
2023/09/12 17:20:53.454166 8=FIX.4.4|9=205|35=D|34=2|347=UTF-8|52=20230912-17:20:53|49=EGIDS|50=1001|56=CASE|44=10|11=678|1=10100400|21=1|386=1|336=NOPL|55=IBM|54=1|60=20230912-17:20:53|38=100|40=2|59=0|453=1|448=4501|447=D|452=28|354=6|355=Public|10=079|
2023/09/12 17:20:53.457078 8=FIX.4.4|9=159|35=8|34=2|49=CASE|52=20230912-17:20:53.457|56=EGIDS|1=10100400|6=10.00|11=678|14=100.00|17=1|31=10.00|32=100.00|37=1|38=100.00|39=A|54=1|55=IBM|150=A|151=0.00|10=182|
2023/09/12 17:20:57.693836 8=FIX.4.4|9=123|35=F|57=EGIDB|49=EGIDS|56=CASE|34=3|41=678|50=1001|52=20230912-17:20:57|11=679|1=10100400|55=IBM|60=20230912-17:20:57|54=1|10=048|
2023/09/12 17:24:29.423275 8=FIX.4.4|9=67|35=A|34=1|49=EGIDS|56=CASE|52=20230912-17:24:29|98=0|108=120|141=Y|10=038|
2023/09/12 17:24:29.423478 8=FIX.4.4|9=71|35=A|34=1|49=CASE|52=20230912-17:24:29.423|56=EGIDS|98=0|108=120|141=Y|10=232|
2023/09/12 17:24:29.423880 8=FIX.4.4|9=205|35=D|34=2|347=UTF-8|52=20230912-17:24:29|49=EGIDS|50=1001|56=CASE|44=10|11=682|1=10100400|21=1|386=1|336=NOPL|55=IBM|54=1|60=20230912-17:24:29|38=100|40=2|59=0|453=1|448=4501|447=D|452=28|354=6|355=Public|10=088|
2023/09/12 17:24:29.426847 8=FIX.4.4|9=159|35=8|34=2|49=CASE|52=20230912-17:24:29.426|56=EGIDS|1=10100400|6=10.00|11=682|14=100.00|17=1|31=10.00|32=100.00|37=1|38=100.00|39=A|54=1|55=IBM|150=A|151=0.00|10=180|
2023/09/12 17:24:32.343220 8=FIX.4.4|9=205|35=D|34=3|347=UTF-8|52=20230912-17:24:32|49=EGIDS|50=1001|56=CASE|44=10|11=683|1=10100400|21=1|386=1|336=NOPL|55=IBM|54=1|60=20230912-17:24:32|38=100|40=2|59=0|453=1|448=4501|447=D|452=28|354=6|355=Public|10=078|
2023/09/12 17:24:32.348449 8=FIX.4.4|9=159|35=8|34=3|49=CASE|52=20230912-17:24:32.348|56=EGIDS|1=10100400|6=10.00|11=683|14=100.00|17=2|31=10.00|32=100.00|37=2|38=100.00|39=A|54=1|55=IBM|150=A|151=0.00|10=181|
2023/09/12 17:24:32.798307 8=FIX.4.4|9=205|35=D|34=4|347=UTF-8|52=20230912-17:24:32|49=EGIDS|50=1001|56=CASE|44=10|11=684|1=10100400|21=1|386=1|336=NOPL|55=IBM|54=1|60=20230912-17:24:32|38=100|40=2|59=0|453=1|448=4501|447=D|452=28|354=6|355=Public|10=080|
2023/09/12 17:24:32.800801 8=FIX.4.4|9=159|35=8|34=4|49=CASE|52=20230912-17:24:32.800|56=EGIDS|1=10100400|6=10.00|11=684|14=100.00|17=3|31=10.00|32=100.00|37=3|38=100.00|39=A|54=1|55=IBM|150=A|151=0.00|10=178|
2023/09/12 17:24:40.702168 8=FIX.4.4|9=123|35=F|57=EGIDB|49=EGIDS|56=CASE|34=5|41=684|50=1001|52=20230912-17:24:40|11=685|1=10100400|55=IBM|60=20230912-17:24:40|54=1|10=036|
2023/09/12 17:25:14.217776 8=FIX.4.4|9=67|35=A|34=1|49=EGIDS|56=CASE|52=20230912-17:25:14|98=0|108=120|141=Y|10=033|
2023/09/12 17:25:14.218202 8=FIX.4.4|9=71|35=A|34=1|49=CASE|52=20230912-17:25:14.218|56=EGIDS|98=0|108=120|141=Y|10=229|
2023/09/12 17:25:14.219673 8=FIX.4.4|9=205|35=D|34=2|347=UTF-8|52=20230912-17:25:14|49=EGIDS|50=1001|56=CASE|44=10|11=686|1=10100400|21=1|386=1|336=NOPL|55=IBM|54=1|60=20230912-17:25:14|38=100|40=2|59=0|453=1|448=4501|447=D|452=28|354=6|355=Public|10=082|
2023/09/12 17:25:14.227052 8=FIX.4.4|9=159|35=8|34=2|49=CASE|52=20230912-17:25:14.226|56=EGIDS|1=10100400|6=10.00|11=686|14=100.00|17=1|31=10.00|32=100.00|37=1|38=100.00|39=A|54=1|55=IBM|150=A|151=0.00|10=177|
2023/09/12 17:25:18.352660 8=FIX.4.4|9=123|35=F|57=EGIDB|49=EGIDS|56=CASE|34=3|41=686|50=1001|52=20230912-17:25:18|11=687|1=10100400|55=IBM|60=20230912-17:25:18|54=1|10=050|
2023/09/12 17:25:29.382215 8=FIX.4.4|9=123|35=F|57=EGIDB|49=EGIDS|56=CASE|34=4|41=686|50=1001|52=20230912-17:25:29|11=688|1=10100400|55=IBM|60=20230912-17:25:29|54=1|10=056|
2023/09/12 17:26:17.582695 8=FIX.4.4|9=67|35=A|34=1|49=EGIDS|56=CASE|52=20230912-17:26:17|98=0|108=120|141=Y|10=037|
2023/09/12 17:26:17.582858 8=FIX.4.4|9=71|35=A|34=1|49=CASE|52=20230912-17:26:17.582|56=EGIDS|98=0|108=120|141=Y|10=237|
2023/09/12 17:26:17.583143 8=FIX.4.4|9=205|35=D|34=2|347=UTF-8|52=20230912-17:26:17|49=EGIDS|50=1001|56=CASE|44=10|11=689|1=10100400|21=1|386=1|336=NOPL|55=IBM|54=1|60=20230912-17:26:17|38=100|40=2|59=0|453=1|448=4501|447=D|452=28|354=6|355=Public|10=093|
2023/09/12 17:26:17.589956 8=FIX.4.4|9=159|35=8|34=2|49=CASE|52=20230912-17:26:17.589|56=EGIDS|1=10100400|6=10.00|11=689|14=100.00|17=1|31=10.00|32=100.00|37=1|38=100.00|39=A|54=1|55=IBM|150=A|151=0.00|10=196|
2023/09/12 17:26:20.822047 8=FIX.4.4|9=123|35=F|57=EGIDB|49=EGIDS|56=CASE|34=3|41=689|50=1001|52=20230912-17:26:20|11=690|1=10100400|55=IBM|60=20230912-17:26:20|54=1|10=035|
2023/09/12 17:26:30.207435 8=FIX.4.4|9=123|35=F|57=EGIDB|49=EGIDS|56=CASE|34=4|41=689|50=1001|52=20230912-17:26:30|11=691|1=10100400|55=IBM|60=20230912-17:26:30|54=1|10=039|
2023/09/12 17:26:31.238192 8=FIX.4.4|9=123|35=F|57=EGIDB|49=EGIDS|56=CASE|34=5|41=689|50=1001|52=20230912-17:26:31|11=692|1=10100400|55=IBM|60=20230912-17:26:31|54=1|10=043|
2023/09/12 17:26:34.400826 8=FIX.4.4|9=212|35=G|49=EGIDS|56=CASE|347=UTF-8|34=6|50=1001|52=20230912-17:26:34|38=100|11=693|1=10100400|21=1|386=1|336=NOPL|55=IBM|60=20230912-17:26:34|59=0|41=689|453=1|448=4501|447=D|452=28|54=1|44=10|40=2|354=6|355=Public|10=165|
2023/09/12 17:26:34.401260 8=FIX.4.4|9=105|35=j|34=3|49=CASE|52=20230912-17:26:34.401|56=EGIDS|57=1001|45=6|58=Unsupported Message Type|372=G|380=3|10=054|
2023/09/12 17:26:47.407075 8=FIX.4.4|9=67|35=A|34=1|49=EGIDS|56=CASE|52=20230912-17:26:47|98=0|108=120|141=Y|10=040|
2023/09/12 17:26:47.407244 8=FIX.4.4|9=71|35=A|34=1|49=CASE|52=20230912-17:26:47.407|56=EGIDS|98=0|108=120|141=Y|10=236|
2023/09/12 17:26:47.407256 8=FIX.4.4|9=205|35=D|34=2|347=UTF-8|52=20230912-17:26:47|49=EGIDS|50=1001|56=CASE|44=10|11=694|1=10100400|21=1|386=1|336=NOPL|55=IBM|54=1|60=20230912-17:26:47|38=100|40=2|59=0|453=1|448=4501|447=D|452=28|354=6|355=Public|10=095|
2023/09/12 17:26:47.409791 8=FIX.4.4|9=159|35=8|34=2|49=CASE|52=20230912-17:26:47.409|56=EGIDS|1=10100400|6=10.00|11=694|14=100.00|17=2|31=10.00|32=100.00|37=2|38=100.00|39=A|54=1|55=IBM|150=A|151=0.00|10=188|
2023/09/12 17:26:50.829991 8=FIX.4.4|9=123|35=F|57=EGIDB|49=EGIDS|56=CASE|34=3|41=694|50=1001|52=20230912-17:26:50|11=695|1=10100400|55=IBM|60=20230912-17:26:50|54=1|10=042|
2023/09/12 17:29:06.585676 8=FIX.4.4|9=67|35=A|34=1|49=EGIDS|56=CASE|52=20230912-17:29:06|98=0|108=120|141=Y|10=038|
2023/09/12 17:29:06.586733 8=FIX.4.4|9=71|35=A|34=1|49=CASE|52=20230912-17:29:06.586|56=EGIDS|98=0|108=120|141=Y|10=242|
2023/09/12 17:29:06.586789 8=FIX.4.4|9=205|35=D|34=2|347=UTF-8|52=20230912-17:29:06|49=EGIDS|50=1001|56=CASE|44=10|11=696|1=10100400|21=1|386=1|336=NOPL|55=IBM|54=1|60=20230912-17:29:06|38=100|40=2|59=0|453=1|448=4501|447=D|452=28|354=6|355=Public|10=093|
2023/09/12 17:29:43.880405 8=FIX.4.4|9=67|35=A|34=1|49=EGIDS|56=CASE|52=20230912-17:29:43|98=0|108=120|141=Y|10=039|
2023/09/12 17:29:43.880995 8=FIX.4.4|9=71|35=A|34=1|49=CASE|52=20230912-17:29:43.880|56=EGIDS|98=0|108=120|141=Y|10=240|
2023/09/12 17:29:43.882458 8=FIX.4.4|9=205|35=D|34=2|347=UTF-8|52=20230912-17:29:43|49=EGIDS|50=1001|56=CASE|44=10|11=700|1=10100400|21=1|386=1|336=NOPL|55=IBM|54=1|60=20230912-17:29:43|38=100|40=2|59=0|453=1|448=4501|447=D|452=28|354=6|355=Public|10=081|
2023/09/12 17:29:52.747790 8=FIX.4.4|9=123|35=F|57=EGIDB|49=EGIDS|56=CASE|34=3|41=700|50=1001|52=20230912-17:29:50|11=701|1=10100400|55=IBM|60=20230912-17:29:50|54=1|10=024|
2023/09/12 17:29:59.426708 8=FIX.4.4|9=159|35=8|34=2|49=CASE|52=20230912-17:29:52.747|56=EGIDS|1=10100400|6=10.00|11=700|14=100.00|17=1|31=10.00|32=100.00|37=1|38=100.00|39=A|54=1|55=IBM|150=A|151=0.00|10=178|
2023/09/12 17:29:59.426785 8=FIX.4.4|9=212|35=G|49=EGIDS|56=CASE|347=UTF-8|34=4|50=1001|52=20230912-17:29:52|38=100|11=702|1=10100400|21=1|386=1|336=NOPL|55=IBM|60=20230912-17:29:52|59=0|41=700|453=1|448=4501|447=D|452=28|54=1|44=10|40=2|354=6|355=Public|10=144|
2023/09/12 17:29:59.426913 8=FIX.4.4|9=105|35=j|34=3|49=CASE|52=20230912-17:29:59.426|56=EGIDS|57=1001|45=4|58=Unsupported Message Type|372=G|380=3|10=069|
2023/09/12 17:29:59.426948 8=FIX.4.4|9=212|35=G|49=EGIDS|56=CASE|347=UTF-8|34=5|50=1001|52=20230912-17:29:52|38=100|11=703|1=10100400|21=1|386=1|336=NOPL|55=IBM|60=20230912-17:29:52|59=0|41=700|453=1|448=4501|447=D|452=28|54=1|44=10|40=2|354=6|355=Public|10=146|
2023/09/12 17:29:59.427015 8=FIX.4.4|9=105|35=j|34=4|49=CASE|52=20230912-17:29:59.426|56=EGIDS|57=1001|45=5|58=Unsupported Message Type|372=G|380=3|10=071|
2023/09/12 17:30:14.367617 8=FIX.4.4|9=67|35=A|34=1|49=EGIDS|56=CASE|52=20230912-17:30:14|98=0|108=120|141=Y|10=029|
2023/09/12 17:30:14.367804 8=FIX.4.4|9=71|35=A|34=1|49=CASE|52=20230912-17:30:14.367|56=EGIDS|98=0|108=120|141=Y|10=230|
2023/09/12 17:30:14.368399 8=FIX.4.4|9=205|35=D|34=2|347=UTF-8|52=20230912-17:30:14|49=EGIDS|50=1001|56=CASE|44=10|11=704|1=10100400|21=1|386=1|336=NOPL|55=IBM|54=1|60=20230912-17:30:14|38=100|40=2|59=0|453=1|448=4501|447=D|452=28|354=6|355=Public|10=065|
2023/09/12 17:30:14.372494 8=FIX.4.4|9=159|35=8|34=2|49=CASE|52=20230912-17:30:14.372|56=EGIDS|1=10100400|6=10.00|11=704|14=100.00|17=2|31=10.00|32=100.00|37=2|38=100.00|39=A|54=1|55=IBM|150=A|151=0.00|10=168|
2023/09/12 17:30:18.577080 8=FIX.4.4|9=123|35=F|57=EGIDB|49=EGIDS|56=CASE|34=3|41=704|50=1001|52=20230912-17:30:18|11=705|1=10100400|55=IBM|60=20230912-17:30:18|54=1|10=024|
2023/09/12 17:32:03.278889 8=FIX.4.4|9=67|35=A|34=1|49=EGIDS|56=CASE|52=20230912-17:32:03|98=0|108=120|141=Y|10=029|
2023/09/12 17:32:03.279045 8=FIX.4.4|9=71|35=A|34=1|49=CASE|52=20230912-17:32:03.279|56=EGIDS|98=0|108=120|141=Y|10=232|
2023/09/12 17:32:03.279403 8=FIX.4.4|9=205|35=D|34=2|347=UTF-8|52=20230912-17:32:03|49=EGIDS|50=1001|56=CASE|44=10|11=706|1=10100400|21=1|386=1|336=NOPL|55=IBM|54=1|60=20230912-17:32:03|38=100|40=2|59=0|453=1|448=4501|447=D|452=28|354=6|355=Public|10=067|
2023/09/12 17:32:03.282438 8=FIX.4.4|9=159|35=8|34=2|49=CASE|52=20230912-17:32:03.282|56=EGIDS|1=10100400|6=10.00|11=706|14=100.00|17=1|31=10.00|32=100.00|37=1|38=100.00|39=A|54=1|55=IBM|150=A|151=0.00|10=168|
2023/09/12 17:32:06.710598 8=FIX.4.4|9=212|35=G|49=EGIDS|56=CASE|347=UTF-8|34=3|50=1001|52=20230912-17:32:06|38=100|11=707|1=10100400|21=1|386=1|336=NOPL|55=IBM|60=20230912-17:32:06|59=0|41=706|453=1|448=4501|447=D|452=28|54=1|44=10|40=2|354=6|355=Public|10=140|
2023/09/12 17:32:06.710765 8=FIX.4.4|9=105|35=j|34=3|49=CASE|52=20230912-17:32:06.710|56=EGIDS|57=1001|45=3|58=Unsupported Message Type|372=G|380=3|10=050|
2023/09/12 17:32:08.567898 8=FIX.4.4|9=212|35=G|49=EGIDS|56=CASE|347=UTF-8|34=4|50=1001|52=20230912-17:32:08|38=100|11=708|1=10100400|21=1|386=1|336=NOPL|55=IBM|60=20230912-17:32:08|59=0|41=706|453=1|448=4501|447=D|452=28|54=1|44=10|40=2|354=6|355=Public|10=146|
2023/09/12 17:32:08.568176 8=FIX.4.4|9=105|35=j|34=4|49=CASE|52=20230912-17:32:08.568|56=EGIDS|57=1001|45=4|58=Unsupported Message Type|372=G|380=3|10=065|
2023/09/12 17:33:24.622981 8=FIX.4.4|9=67|35=A|34=1|49=EGIDS|56=CASE|52=20230912-17:33:24|98=0|108=120|141=Y|10=033|
2023/09/12 17:33:24.623154 8=FIX.4.4|9=71|35=A|34=1|49=CASE|52=20230912-17:33:24.623|56=EGIDS|98=0|108=120|141=Y|10=229|
2023/09/12 17:33:24.623651 8=FIX.4.4|9=205|35=D|34=2|347=UTF-8|52=20230912-17:33:24|49=EGIDS|50=1001|56=CASE|44=10|11=709|1=10100400|21=1|386=1|336=NOPL|55=IBM|54=1|60=20230912-17:33:24|38=100|40=2|59=0|453=1|448=4501|447=D|452=28|354=6|355=Public|10=078|
2023/09/12 17:33:24.627508 8=FIX.4.4|9=159|35=8|34=2|49=CASE|52=20230912-17:33:24.627|56=EGIDS|1=10100400|6=10.00|11=709|14=100.00|17=1|31=10.00|32=100.00|37=1|38=100.00|39=A|54=1|55=IBM|150=A|151=0.00|10=178|
2023/09/12 17:33:26.743889 8=FIX.4.4|9=123|35=F|57=EGIDB|49=EGIDS|56=CASE|34=3|41=709|50=1001|52=20230912-17:33:26|11=710|1=10100400|55=IBM|60=20230912-17:33:26|54=1|10=029|
2023/09/12 17:33:29.310374 8=FIX.4.4|9=212|35=G|49=EGIDS|56=CASE|347=UTF-8|34=4|50=1001|52=20230912-17:33:29|38=100|11=711|1=10100400|21=1|386=1|336=NOPL|55=IBM|60=20230912-17:33:29|59=0|41=709|453=1|448=4501|447=D|452=28|54=1|44=10|40=2|354=6|355=Public|10=151|
2023/09/12 17:33:39.950726 8=FIX.4.4|9=205|35=D|34=5|347=UTF-8|52=20230912-17:33:39|49=EGIDS|50=1001|56=CASE|44=10|11=712|1=10100400|21=1|386=1|336=NOPL|55=IBM|54=1|60=20230912-17:33:39|38=100|40=2|59=0|453=1|448=4501|447=D|452=28|354=6|355=Public|10=087|
2023/09/12 17:33:39.953390 8=FIX.4.4|9=159|35=8|34=3|49=CASE|52=20230912-17:33:39.953|56=EGIDS|1=10100400|6=10.00|11=712|14=100.00|17=2|31=10.00|32=100.00|37=2|38=100.00|39=A|54=1|55=IBM|150=A|151=0.00|10=183|
2023/09/12 17:33:40.406426 8=FIX.4.4|9=205|35=D|34=6|347=UTF-8|52=20230912-17:33:40|49=EGIDS|50=1001|56=CASE|44=10|11=713|1=10100400|21=1|386=1|336=NOPL|55=IBM|54=1|60=20230912-17:33:40|38=100|40=2|59=0|453=1|448=4501|447=D|452=28|354=6|355=Public|10=073|
2023/09/12 17:33:40.409001 8=FIX.4.4|9=159|35=8|34=4|49=CASE|52=20230912-17:33:40.408|56=EGIDS|1=10100400|6=10.00|11=713|14=100.00|17=3|31=10.00|32=100.00|37=3|38=100.00|39=A|54=1|55=IBM|150=A|151=0.00|10=174|
2023/09/12 17:33:42.886335 8=FIX.4.4|9=212|35=G|49=EGIDS|56=CASE|347=UTF-8|34=7|50=1001|52=20230912-17:33:42|38=100|11=714|1=10100400|21=1|386=1|336=NOPL|55=IBM|60=20230912-17:33:42|59=0|41=713|453=1|448=4501|447=D|452=28|54=1|44=10|40=2|354=6|355=Public|10=142|
2023/09/12 17:33:43.535296 8=FIX.4.4|9=212|35=G|49=EGIDS|56=CASE|347=UTF-8|34=8|50=1001|52=20230912-17:33:43|38=100|11=715|1=10100400|21=1|386=1|336=NOPL|55=IBM|60=20230912-17:33:43|59=0|41=713|453=1|448=4501|447=D|452=28|54=1|44=10|40=2|354=6|355=Public|10=146|
2023/09/12 17:33:44.351846 8=FIX.4.4|9=123|35=F|57=EGIDB|49=EGIDS|56=CASE|34=9|41=713|50=1001|52=20230912-17:33:44|11=716|1=10100400|55=IBM|60=20230912-17:33:44|54=1|10=036|
2023/09/12 17:33:44.766893 8=FIX.4.4|9=124|35=F|57=EGIDB|49=EGIDS|56=CASE|34=10|41=713|50=1001|52=20230912-17:33:44|11=717|1=10100400|55=IBM|60=20230912-17:33:44|54=1|10=078|
2023/09/12 17:34:09.975418 8=FIX.4.4|9=67|35=A|34=1|49=EGIDS|56=CASE|52=20230912-17:34:09|98=0|108=120|141=Y|10=037|
2023/09/12 17:34:09.975556 8=FIX.4.4|9=71|35=A|34=1|49=CASE|52=20230912-17:34:09.975|56=EGIDS|98=0|108=120|141=Y|10=243|
2023/09/12 17:34:09.975793 8=FIX.4.4|9=205|35=D|34=2|347=UTF-8|52=20230912-17:34:09|49=EGIDS|50=1001|56=CASE|44=10|11=718|1=10100400|21=1|386=1|336=NOPL|55=IBM|54=1|60=20230912-17:34:09|38=100|40=2|59=0|453=1|448=4501|447=D|452=28|354=6|355=Public|10=086|
2023/09/12 17:34:09.979454 8=FIX.4.4|9=159|35=8|34=2|49=CASE|52=20230912-17:34:09.979|56=EGIDS|1=10100400|6=10.00|11=718|14=100.00|17=1|31=10.00|32=100.00|37=1|38=100.00|39=A|54=1|55=IBM|150=A|151=0.00|10=192|
2023/09/12 17:34:13.143433 8=FIX.4.4|9=123|35=F|57=EGIDB|49=EGIDS|56=CASE|34=3|41=718|50=1001|52=20230912-17:34:13|11=719|1=10100400|55=IBM|60=20230912-17:34:13|54=1|10=032|
2023/09/12 17:34:15.878922 8=FIX.4.4|9=212|35=G|49=EGIDS|56=CASE|347=UTF-8|34=4|50=1001|52=20230912-17:34:15|38=100|11=720|1=10100400|21=1|386=1|336=NOPL|55=IBM|60=20230912-17:34:15|59=0|41=718|453=1|448=4501|447=D|452=28|54=1|44=10|40=2|354=6|355=Public|10=143|
2023/09/12 17:34:18.006246 8=FIX.4.4|9=123|35=F|57=EGIDB|49=EGIDS|56=CASE|34=5|41=718|50=1001|52=20230912-17:34:17|11=721|1=10100400|55=IBM|60=20230912-17:34:17|54=1|10=035|
2023/09/12 17:34:18.577160 8=FIX.4.4|9=212|35=G|49=EGIDS|56=CASE|347=UTF-8|34=6|50=1001|52=20230912-17:34:18|38=100|11=722|1=10100400|21=1|386=1|336=NOPL|55=IBM|60=20230912-17:34:18|59=0|41=718|453=1|448=4501|447=D|452=28|54=1|44=10|40=2|354=6|355=Public|10=153|
2023/09/12 18:02:51.575679 8=FIX.4.4|9=67|35=A|34=1|49=EGIDS|56=CASE|52=20230912-18:02:51|98=0|108=120|141=Y|10=030|
2023/09/12 18:02:51.576571 8=FIX.4.4|9=71|35=A|34=1|49=CASE|52=20230912-18:02:51.576|56=EGIDS|98=0|108=120|141=Y|10=233|
2023/09/12 18:02:51.576591 8=FIX.4.4|9=205|35=D|34=2|347=UTF-8|52=20230912-18:02:51|49=EGIDS|50=1001|56=CASE|44=10|11=762|1=10100400|21=1|386=1|336=NOPL|55=IBM|54=1|60=20230912-18:02:51|38=100|40=2|59=0|453=1|448=4501|447=D|452=28|354=6|355=Public|10=071|
2023/09/12 18:03:18.408282 8=FIX.4.4|9=67|35=A|34=1|49=EGIDS|56=CASE|52=20230912-18:03:18|98=0|108=120|141=Y|10=034|
2023/09/12 18:03:18.408483 8=FIX.4.4|9=71|35=A|34=1|49=CASE|52=20230912-18:03:18.408|56=EGIDS|98=0|108=120|141=Y|10=231|
2023/09/12 18:03:18.408800 8=FIX.4.4|9=205|35=D|34=2|347=UTF-8|52=20230912-18:03:18|49=EGIDS|50=1001|56=CASE|44=10|11=765|1=10100400|21=1|386=1|336=NOPL|55=IBM|54=1|60=20230912-18:03:18|38=100|40=2|59=0|453=1|448=4501|447=D|452=28|354=6|355=Public|10=082|
2023/09/12 18:04:11.391615 8=FIX.4.4|9=67|35=A|34=1|49=EGIDS|56=CASE|52=20230912-18:04:11|98=0|108=120|141=Y|10=028|
2023/09/12 18:04:11.391761 8=FIX.4.4|9=71|35=A|34=1|49=CASE|52=20230912-18:04:11.391|56=EGIDS|98=0|108=120|141=Y|10=226|
2023/09/12 18:04:11.642009 8=FIX.4.4|9=67|35=A|34=1|49=EGIDS|56=CASE|52=20230912-18:04:11|98=0|108=120|141=Y|10=028|
2023/09/12 18:04:11.642091 8=FIX.4.4|9=71|35=A|34=1|49=CASE|52=20230912-18:04:11.642|56=EGIDS|98=0|108=120|141=Y|10=225|
2023/09/12 18:04:13.255321 8=FIX.4.4|9=205|35=D|34=2|347=UTF-8|52=20230912-18:04:13|49=EGIDS|50=1001|56=CASE|44=10|11=770|1=10100400|21=1|386=1|336=NOPL|55=IBM|54=1|60=20230912-18:04:13|38=100|40=2|59=0|453=1|448=4501|447=D|452=28|354=6|355=Public|10=070|
2023/09/12 18:04:34.895654 8=FIX.4.4|9=67|35=A|34=1|49=EGIDS|56=CASE|52=20230912-18:04:34|98=0|108=120|141=Y|10=033|
2023/09/12 18:04:34.895793 8=FIX.4.4|9=71|35=A|34=1|49=CASE|52=20230912-18:04:34.895|56=EGIDS|98=0|108=120|141=Y|10=240|
2023/09/12 18:04:34.896036 8=FIX.4.4|9=205|35=D|34=2|347=UTF-8|52=20230912-18:04:34|49=EGIDS|50=1001|56=CASE|44=10|11=774|1=10100400|21=1|386=1|336=NOPL|55=IBM|54=1|60=20230912-18:04:34|38=100|40=2|59=0|453=1|448=4501|447=D|452=28|354=6|355=Public|10=080|
2023/09/12 18:04:34.908781 8=FIX.4.4|9=159|35=8|34=2|49=CASE|52=20230912-18:04:34.908|56=EGIDS|1=10100400|6=10.00|11=774|14=100.00|17=1|31=10.00|32=100.00|37=1|38=100.00|39=A|54=1|55=IBM|150=A|151=0.00|10=182|
2023/09/12 18:04:39.015180 8=FIX.4.4|9=123|35=F|57=EGIDB|49=EGIDS|56=CASE|34=3|41=774|50=1001|52=20230912-18:04:39|11=775|1=10100400|55=IBM|60=20230912-18:04:39|54=1|10=048|
2023/09/12 18:04:39.015367 8=FIX.4.4|9=131|35=j|34=3|49=CASE|50=EGIDB|52=20230912-18:04:39.015|56=EGIDS|57=1001|45=3|58=Conditionally Required Field Missing (38)|372=F|380=5|10=120|
2023/09/12 18:04:42.711095 8=FIX.4.4|9=123|35=F|57=EGIDB|49=EGIDS|56=CASE|34=4|41=774|50=1001|52=20230912-18:04:42|11=776|1=10100400|55=IBM|60=20230912-18:04:42|54=1|10=038|
2023/09/12 18:04:42.711272 8=FIX.4.4|9=131|35=j|34=4|49=CASE|50=EGIDB|52=20230912-18:04:42.711|56=EGIDS|57=1001|45=4|58=Conditionally Required Field Missing (38)|372=F|380=5|10=119|
2023/09/12 18:04:44.304976 8=FIX.4.4|9=212|35=G|49=EGIDS|56=CASE|347=UTF-8|34=5|50=1001|52=20230912-18:04:44|38=100|11=777|1=10100400|21=1|386=1|336=NOPL|55=IBM|60=20230912-18:04:44|59=0|41=774|453=1|448=4501|447=D|452=28|54=1|44=10|40=2|354=6|355=Public|10=158|
2023/09/12 18:04:46.975155 8=FIX.4.4|9=212|35=G|49=EGIDS|56=CASE|347=UTF-8|34=6|50=1001|52=20230912-18:04:46|38=100|11=778|1=10100400|21=1|386=1|336=NOPL|55=IBM|60=20230912-18:04:46|59=0|41=774|453=1|448=4501|447=D|452=28|54=1|44=10|40=2|354=6|355=Public|10=164|
2023/09/12 18:04:47.623640 8=FIX.4.4|9=212|35=G|49=EGIDS|56=CASE|347=UTF-8|34=7|50=1001|52=20230912-18:04:47|38=100|11=779|1=10100400|21=1|386=1|336=NOPL|55=IBM|60=20230912-18:04:47|59=0|41=774|453=1|448=4501|447=D|452=28|54=1|44=10|40=2|354=6|355=Public|10=168|
2023/09/12 18:05:45.687709 8=FIX.4.4|9=67|35=A|34=1|49=EGIDS|56=CASE|52=20230912-18:05:45|98=0|108=120|141=Y|10=036|
2023/09/12 18:05:45.687903 8=FIX.4.4|9=71|35=A|34=1|49=CASE|52=20230912-18:05:45.687|56=EGIDS|98=0|108=120|141=Y|10=242|
2023/09/12 18:05:45.688131 8=FIX.4.4|9=205|35=D|34=2|347=UTF-8|52=20230912-18:05:45|49=EGIDS|50=1001|56=CASE|44=10|11=780|1=10100400|21=1|386=1|336=NOPL|55=IBM|54=1|60=20230912-18:05:45|38=100|40=2|59=0|453=1|448=4501|447=D|452=28|354=6|355=Public|10=083|
2023/09/12 18:05:45.692719 8=FIX.4.4|9=159|35=8|34=2|49=CASE|52=20230912-18:05:45.692|56=EGIDS|1=10100400|6=10.00|11=780|14=100.00|17=1|31=10.00|32=100.00|37=1|38=100.00|39=A|54=1|55=IBM|150=A|151=0.00|10=182|
2023/09/12 18:05:48.879254 8=FIX.4.4|9=123|35=F|57=EGIDB|49=EGIDS|56=CASE|34=3|41=780|50=1001|52=20230912-18:05:48|11=781|1=10100400|55=IBM|60=20230912-18:05:48|54=1|10=044|
2023/09/12 18:05:53.409864 8=FIX.4.4|9=131|35=j|34=3|49=CASE|50=EGIDB|52=20230912-18:05:53.409|56=EGIDS|57=1001|45=3|58=Conditionally Required Field Missing (38)|372=F|380=5|10=124|
2023/09/12 18:06:14.311805 8=FIX.4.4|9=67|35=A|34=1|49=EGIDS|56=CASE|52=20230912-18:06:14|98=0|108=120|141=Y|10=033|
2023/09/12 18:06:14.311950 8=FIX.4.4|9=71|35=A|34=1|49=CASE|52=20230912-18:06:14.311|56=EGIDS|98=0|108=120|141=Y|10=223|
2023/09/12 18:06:14.312512 8=FIX.4.4|9=205|35=D|34=2|347=UTF-8|52=20230912-18:06:14|49=EGIDS|50=1001|56=CASE|44=10|11=782|1=10100400|21=1|386=1|336=NOPL|55=IBM|54=1|60=20230912-18:06:14|38=100|40=2|59=0|453=1|448=4501|447=D|452=28|354=6|355=Public|10=079|
2023/09/12 18:06:14.316058 8=FIX.4.4|9=159|35=8|34=2|49=CASE|52=20230912-18:06:14.316|56=EGIDS|1=10100400|6=10.00|11=782|14=100.00|17=1|31=10.00|32=100.00|37=1|38=100.00|39=A|54=1|55=IBM|150=A|151=0.00|10=174|
2023/09/12 18:06:18.079317 8=FIX.4.4|9=123|35=F|57=EGIDB|49=EGIDS|56=CASE|34=3|41=782|50=1001|52=20230912-18:06:18|11=783|1=10100400|55=IBM|60=20230912-18:06:18|54=1|10=044|
2023/09/12 18:06:30.259223 8=FIX.4.4|9=131|35=j|34=3|49=CASE|50=EGIDB|52=20230912-18:06:30.259|56=EGIDS|57=1001|45=3|58=Conditionally Required Field Missing (38)|372=F|380=5|10=123|
2023/09/12 18:06:44.831644 8=FIX.4.4|9=67|35=A|34=1|49=EGIDS|56=CASE|52=20230912-18:06:44|98=0|108=120|141=Y|10=036|
2023/09/12 18:06:44.831865 8=FIX.4.4|9=71|35=A|34=1|49=CASE|52=20230912-18:06:44.831|56=EGIDS|98=0|108=120|141=Y|10=233|
2023/09/12 18:06:44.832741 8=FIX.4.4|9=205|35=D|34=2|347=UTF-8|52=20230912-18:06:44|49=EGIDS|50=1001|56=CASE|44=10|11=784|1=10100400|21=1|386=1|336=NOPL|55=IBM|54=1|60=20230912-18:06:44|38=100|40=2|59=0|453=1|448=4501|447=D|452=28|354=6|355=Public|10=087|
2023/09/12 18:06:44.835964 8=FIX.4.4|9=159|35=8|34=2|49=CASE|52=20230912-18:06:44.835|56=EGIDS|1=10100400|6=10.00|11=784|14=100.00|17=1|31=10.00|32=100.00|37=1|38=100.00|39=A|54=1|55=IBM|150=A|151=0.00|10=185|
2023/09/12 18:06:49.384143 8=FIX.4.4|9=123|35=F|57=EGIDB|49=EGIDS|56=CASE|34=3|41=784|50=1001|52=20230912-18:06:49|11=785|1=10100400|55=IBM|60=20230912-18:06:49|54=1|10=056|
2023/09/12 18:07:01.820196 8=FIX.4.4|9=131|35=j|34=3|49=CASE|50=EGIDB|52=20230912-18:07:01.820|56=EGIDS|57=1001|45=3|58=Conditionally Required Field Missing (38)|372=F|380=5|10=116|
2023/09/12 18:07:13.079354 8=FIX.4.4|9=205|35=D|34=4|347=UTF-8|52=20230912-18:07:13|49=EGIDS|50=1001|56=CASE|44=10|11=786|1=10100400|21=1|386=1|336=NOPL|55=IBM|54=1|60=20230912-18:07:13|38=100|40=2|59=0|453=1|448=4501|447=D|452=28|354=6|355=Public|10=085|
2023/09/12 18:07:13.082508 8=FIX.4.4|9=159|35=8|34=4|49=CASE|52=20230912-18:07:13.082|56=EGIDS|1=10100400|6=10.00|11=786|14=100.00|17=2|31=10.00|32=100.00|37=2|38=100.00|39=A|54=1|55=IBM|150=A|151=0.00|10=182|
2023/09/12 18:07:16.712591 8=FIX.4.4|9=123|35=F|57=EGIDB|49=EGIDS|56=CASE|34=5|41=786|50=1001|52=20230912-18:07:16|11=787|1=10100400|55=IBM|60=20230912-18:07:16|54=1|10=052|
2023/09/12 18:08:22.056014 8=FIX.4.4|9=67|35=A|34=1|49=EGIDS|56=CASE|52=20230912-18:08:22|98=0|108=120|141=Y|10=034|
2023/09/12 18:08:22.056167 8=FIX.4.4|9=71|35=A|34=1|49=CASE|52=20230912-18:08:22.056|56=EGIDS|98=0|108=120|141=Y|10=230|
2023/09/12 18:08:22.056340 8=FIX.4.4|9=205|35=D|34=2|347=UTF-8|52=20230912-18:08:22|49=EGIDS|50=1001|56=CASE|44=10|11=788|1=10100400|21=1|386=1|336=NOPL|55=IBM|54=1|60=20230912-18:08:22|38=100|40=2|59=0|453=1|448=4501|447=D|452=28|354=6|355=Public|10=087|
2023/09/12 18:08:22.059893 8=FIX.4.4|9=159|35=8|34=2|49=CASE|52=20230912-18:08:22.059|56=EGIDS|1=10100400|6=10.00|11=788|14=100.00|17=1|31=10.00|32=100.00|37=1|38=100.00|39=A|54=1|55=IBM|150=A|151=0.00|10=185|
2023/09/12 18:08:26.360161 8=FIX.4.4|9=123|35=F|57=EGIDB|49=EGIDS|56=CASE|34=3|41=788|50=1001|52=20230912-18:08:26|11=789|1=10100400|55=IBM|60=20230912-18:08:26|54=1|10=058|
2023/09/12 18:08:49.655970 8=FIX.4.4|9=67|35=A|34=1|49=EGIDS|56=CASE|52=20230912-18:08:49|98=0|108=120|141=Y|10=043|
2023/09/12 18:08:49.656137 8=FIX.4.4|9=71|35=A|34=1|49=CASE|52=20230912-18:08:49.656|56=EGIDS|98=0|108=120|141=Y|10=245|
2023/09/12 18:08:49.656663 8=FIX.4.4|9=205|35=D|34=2|347=UTF-8|52=20230912-18:08:49|49=EGIDS|50=1001|56=CASE|44=10|11=790|1=10100400|21=1|386=1|336=NOPL|55=IBM|54=1|60=20230912-18:08:49|38=100|40=2|59=0|453=1|448=4501|447=D|452=28|354=6|355=Public|10=098|
2023/09/12 18:08:49.660124 8=FIX.4.4|9=159|35=8|34=2|49=CASE|52=20230912-18:08:49.660|56=EGIDS|1=10100400|6=10.00|11=790|14=100.00|17=1|31=10.00|32=100.00|37=1|38=100.00|39=A|54=1|55=IBM|150=A|151=0.00|10=185|
2023/09/12 18:08:53.007417 8=FIX.4.4|9=123|35=F|57=EGIDB|49=EGIDS|56=CASE|34=3|41=790|50=1001|52=20230912-18:08:52|11=791|1=10100400|55=IBM|60=20230912-18:08:52|54=1|10=042|
2023/09/12 18:09:05.396295 8=FIX.4.4|9=131|35=j|34=3|49=CASE|50=EGIDB|52=20230912-18:09:05.396|56=EGIDS|57=1001|45=3|58=Conditionally Required Field Missing (38)|372=F|380=5|10=130|
2023/09/12 18:11:07.379276 8=FIX.4.4|9=67|35=A|34=1|49=EGIDS|56=CASE|52=20230912-18:11:07|98=0|108=120|141=Y|10=031|
2023/09/12 18:11:07.379660 8=FIX.4.4|9=71|35=A|34=1|49=CASE|52=20230912-18:11:07.379|56=EGIDS|98=0|108=120|141=Y|10=235|
2023/09/12 18:11:07.380746 8=FIX.4.4|9=205|35=D|34=2|347=UTF-8|52=20230912-18:11:07|49=EGIDS|50=1001|56=CASE|44=10|11=792|1=10100400|21=1|386=1|336=NOPL|55=IBM|54=1|60=20230912-18:11:07|38=100|40=2|59=0|453=1|448=4501|447=D|452=28|354=6|355=Public|10=076|
2023/09/12 18:11:07.389390 8=FIX.4.4|9=159|35=8|34=2|49=CASE|52=20230912-18:11:07.389|56=EGIDS|1=10100400|6=10.00|11=792|14=100.00|17=1|31=10.00|32=100.00|37=1|38=100.00|39=A|54=1|55=IBM|150=A|151=0.00|10=183|
2023/09/12 18:11:13.607307 8=FIX.4.4|9=123|35=F|57=EGIDB|49=EGIDS|56=CASE|34=3|41=792|50=1001|52=20230912-18:11:13|11=793|1=10100400|55=IBM|60=20230912-18:11:13|54=1|10=028|
2023/09/12 18:11:23.642522 8=FIX.4.4|9=102|35=8|34=3|49=CASE|52=20230912-18:11:23.642|56=EGIDS|6=0.00|14=0.00|17=2|37=2|39=A|54=1|150=A|151=0.00|10=064|
2023/09/12 18:11:34.159564 8=FIX.4.4|9=123|35=F|57=EGIDB|49=EGIDS|56=CASE|34=4|41=792|50=1001|52=20230912-18:11:34|11=794|1=10100400|55=IBM|60=20230912-18:11:34|54=1|10=036|
2023/09/12 18:12:24.647911 8=FIX.4.4|9=67|35=A|34=1|49=EGIDS|56=CASE|52=20230912-18:12:24|98=0|108=120|141=Y|10=031|
2023/09/12 18:12:24.648043 8=FIX.4.4|9=71|35=A|34=1|49=CASE|52=20230912-18:12:24.648|56=EGIDS|98=0|108=120|141=Y|10=234|
2023/09/12 18:12:24.648353 8=FIX.4.4|9=205|35=D|34=2|347=UTF-8|52=20230912-18:12:24|49=EGIDS|50=1001|56=CASE|44=10|11=795|1=10100400|21=1|386=1|336=NOPL|55=IBM|54=1|60=20230912-18:12:24|38=100|40=2|59=0|453=1|448=4501|447=D|452=28|354=6|355=Public|10=079|
2023/09/12 18:12:24.657182 8=FIX.4.4|9=159|35=8|34=2|49=CASE|52=20230912-18:12:24.657|56=EGIDS|1=10100400|6=10.00|11=795|14=100.00|17=1|31=10.00|32=100.00|37=1|38=100.00|39=A|54=1|55=IBM|150=A|151=0.00|10=184|
2023/09/12 18:12:28.569519 8=FIX.4.4|9=123|35=F|57=EGIDB|49=EGIDS|56=CASE|34=3|41=795|50=1001|52=20230912-18:12:28|11=796|1=10100400|55=IBM|60=20230912-18:12:28|54=1|10=048|
2023/09/12 18:12:42.706234 8=FIX.4.4|9=102|35=8|34=3|49=CASE|52=20230912-18:12:42.706|56=EGIDS|6=0.00|14=0.00|17=2|37=2|39=4|54=1|150=4|151=0.00|10=041|
2023/09/12 18:12:50.063425 8=FIX.4.4|9=205|35=D|34=4|347=UTF-8|52=20230912-18:12:50|49=EGIDS|50=1001|56=CASE|44=10|11=797|1=10100400|21=1|386=1|336=NOPL|55=IBM|54=1|60=20230912-18:12:50|38=100|40=2|59=0|453=1|448=4501|447=D|452=28|354=6|355=Public|10=081|
2023/09/12 18:12:50.066313 8=FIX.4.4|9=159|35=8|34=4|49=CASE|52=20230912-18:12:50.066|56=EGIDS|1=10100400|6=10.00|11=797|14=100.00|17=3|31=10.00|32=100.00|37=3|38=100.00|39=A|54=1|55=IBM|150=A|151=0.00|10=185|
2023/09/12 18:12:54.495759 8=FIX.4.4|9=67|35=A|34=1|49=EGIDS|56=CASE|52=20230912-18:12:54|98=0|108=120|141=Y|10=034|
2023/09/12 18:12:54.495957 8=FIX.4.4|9=71|35=A|34=1|49=CASE|52=20230912-18:12:54.495|56=EGIDS|98=0|108=120|141=Y|10=237|
2023/09/12 18:12:54.496279 8=FIX.4.4|9=205|35=D|34=2|347=UTF-8|52=20230912-18:12:54|49=EGIDS|50=1001|56=CASE|44=10|11=798|1=10100400|21=1|386=1|336=NOPL|55=IBM|54=1|60=20230912-18:12:54|38=100|40=2|59=0|453=1|448=4501|447=D|452=28|354=6|355=Public|10=088|
2023/09/12 18:12:54.499189 8=FIX.4.4|9=159|35=8|34=2|49=CASE|52=20230912-18:12:54.499|56=EGIDS|1=10100400|6=10.00|11=798|14=100.00|17=4|31=10.00|32=100.00|37=4|38=100.00|39=A|54=1|55=IBM|150=A|151=0.00|10=200|
2023/09/12 18:12:57.695560 8=FIX.4.4|9=123|35=F|57=EGIDB|49=EGIDS|56=CASE|34=3|41=798|50=1001|52=20230912-18:12:57|11=799|1=10100400|55=IBM|60=20230912-18:12:57|54=1|10=058|
2023/09/12 18:12:57.695760 8=FIX.4.4|9=102|35=8|34=3|49=CASE|52=20230912-18:12:57.695|56=EGIDS|6=0.00|14=0.00|17=5|37=5|39=4|54=1|150=4|151=0.00|10=060|
2023/09/12 18:14:45.361008 8=FIX.4.4|9=67|35=A|34=1|49=EGIDS|56=CASE|52=20230912-18:14:45|98=0|108=120|141=Y|10=036|
2023/09/12 18:14:45.361262 8=FIX.4.4|9=71|35=A|34=1|49=CASE|52=20230912-18:14:45.361|56=EGIDS|98=0|108=120|141=Y|10=231|
2023/09/12 18:14:45.362063 8=FIX.4.4|9=205|35=D|34=2|347=UTF-8|52=20230912-18:14:45|49=EGIDS|50=1001|56=CASE|44=10|11=800|1=10100400|21=1|386=1|336=NOPL|55=IBM|54=1|60=20230912-18:14:45|38=100|40=2|59=0|453=1|448=4501|447=D|452=28|354=6|355=Public|10=076|
2023/09/12 18:14:45.364984 8=FIX.4.4|9=159|35=8|34=2|49=CASE|52=20230912-18:14:45.364|56=EGIDS|1=10100400|6=10.00|11=800|14=100.00|17=1|31=10.00|32=100.00|37=1|38=100.00|39=A|54=1|55=IBM|150=A|151=0.00|10=171|
2023/09/12 18:14:48.447363 8=FIX.4.4|9=123|35=F|57=EGIDB|49=EGIDS|56=CASE|34=3|41=800|50=1001|52=20230912-18:14:48|11=801|1=10100400|55=IBM|60=20230912-18:14:48|54=1|10=030|
2023/09/12 18:14:48.447552 8=FIX.4.4|9=140|35=8|34=3|49=CASE|52=20230912-18:14:48.447|56=EGIDS|6=0.00|11=801|14=0.00|17=2|31=0.00|32=0.00|37=2|38=0.00|39=4|54=1|55=IBM|150=4|151=0.00|10=022|
2023/09/12 18:14:53.151310 8=FIX.4.4|9=118|35=F|57=EGIDB|49=EGIDS|56=CASE|34=4|41=801|50=1001|52=20230912-18:14:53|11=802|1=801|55=IBM|60=20230912-18:14:53|54=1|10=048|
2023/09/12 18:14:53.151499 8=FIX.4.4|9=140|35=8|34=4|49=CASE|52=20230912-18:14:53.151|56=EGIDS|6=0.00|11=802|14=0.00|17=3|31=0.00|32=0.00|37=3|38=0.00|39=4|54=1|55=IBM|150=4|151=0.00|10=014|
2023/09/12 18:14:55.895776 8=FIX.4.4|9=205|35=D|34=5|347=UTF-8|52=20230912-18:14:55|49=EGIDS|50=1001|56=CASE|44=10|11=803|1=10100400|21=1|386=1|336=NOPL|55=IBM|54=1|60=20230912-18:14:55|38=100|40=2|59=0|453=1|448=4501|447=D|452=28|354=6|355=Public|10=084|
2023/09/12 18:14:55.898330 8=FIX.4.4|9=159|35=8|34=5|49=CASE|52=20230912-18:14:55.898|56=EGIDS|1=10100400|6=10.00|11=803|14=100.00|17=4|31=10.00|32=100.00|37=4|38=100.00|39=A|54=1|55=IBM|150=A|151=0.00|10=196|
2023/09/12 18:14:58.959435 8=FIX.4.4|9=123|35=F|57=EGIDB|49=EGIDS|56=CASE|34=6|41=803|50=1001|52=20230912-18:14:58|11=804|1=10100400|55=IBM|60=20230912-18:14:58|54=1|10=041|
2023/09/12 18:14:58.959640 8=FIX.4.4|9=140|35=8|34=6|49=CASE|52=20230912-18:14:58.959|56=EGIDS|6=0.00|11=804|14=0.00|17=5|31=0.00|32=0.00|37=5|38=0.00|39=4|54=1|55=IBM|150=4|151=0.00|10=043|
2023/09/12 18:15:02.031415 8=FIX.4.4|9=205|35=D|34=7|347=UTF-8|52=20230912-18:15:02|49=EGIDS|50=1001|56=CASE|44=10|11=805|1=10100400|21=1|386=1|336=NOPL|55=IBM|54=1|60=20230912-18:15:02|38=100|40=2|59=0|453=1|448=4501|447=D|452=28|354=6|355=Public|10=074|
2023/09/12 18:15:02.033845 8=FIX.4.4|9=159|35=8|34=7|49=CASE|52=20230912-18:15:02.033|56=EGIDS|1=10100400|6=10.00|11=805|14=100.00|17=6|31=10.00|32=100.00|37=6|38=100.00|39=A|54=1|55=IBM|150=A|151=0.00|10=178|
2023/09/12 18:15:06.394313 8=FIX.4.4|9=212|35=G|49=EGIDS|56=CASE|347=UTF-8|34=8|50=1001|52=20230912-18:15:06|38=100|11=806|1=10100400|21=1|386=1|336=NOPL|55=IBM|60=20230912-18:15:06|59=0|41=803|453=1|448=4501|447=D|452=28|54=1|44=10|40=2|354=6|355=Public|10=147|
2023/09/12 18:17:05.067356 8=FIX.4.4|9=67|35=A|34=1|49=EGIDS|56=CASE|52=20230912-18:17:05|98=0|108=120|141=Y|10=035|
2023/09/12 18:17:05.067512 8=FIX.4.4|9=71|35=A|34=1|49=CASE|52=20230912-18:17:05.067|56=EGIDS|98=0|108=120|141=Y|10=233|
2023/09/12 18:17:15.969458 8=FIX.4.4|9=67|35=A|34=1|49=EGIDS|56=CASE|52=20230912-18:17:15|98=0|108=120|141=Y|10=036|
2023/09/12 18:17:15.969551 8=FIX.4.4|9=71|35=A|34=1|49=CASE|52=20230912-18:17:15.969|56=EGIDS|98=0|108=120|141=Y|10=245|
2023/09/12 18:17:15.972194 8=FIX.4.4|9=205|35=D|34=2|347=UTF-8|52=20230912-18:17:15|49=EGIDS|50=1001|56=CASE|44=10|11=807|1=10100400|21=1|386=1|336=NOPL|55=IBM|54=1|60=20230912-18:17:15|38=100|40=2|59=0|453=1|448=4501|447=D|452=28|354=6|355=Public|10=083|
